{
  "contractName": "MintContract",
  "abi": [
    {
      "inputs": [],
      "stateMutability": "nonpayable",
      "type": "constructor"
    },
    {
      "anonymous": false,
      "inputs": [
        {
          "indexed": true,
          "internalType": "address",
          "name": "owner",
          "type": "address"
        },
        {
          "indexed": true,
          "internalType": "address",
          "name": "approved",
          "type": "address"
        },
        {
          "indexed": true,
          "internalType": "uint256",
          "name": "tokenId",
          "type": "uint256"
        }
      ],
      "name": "Approval",
      "type": "event"
    },
    {
      "anonymous": false,
      "inputs": [
        {
          "indexed": true,
          "internalType": "address",
          "name": "owner",
          "type": "address"
        },
        {
          "indexed": true,
          "internalType": "address",
          "name": "operator",
          "type": "address"
        },
        {
          "indexed": false,
          "internalType": "bool",
          "name": "approved",
          "type": "bool"
        }
      ],
      "name": "ApprovalForAll",
      "type": "event"
    },
    {
      "anonymous": false,
      "inputs": [
        {
          "indexed": true,
          "internalType": "address",
          "name": "previousOwner",
          "type": "address"
        },
        {
          "indexed": true,
          "internalType": "address",
          "name": "newOwner",
          "type": "address"
        }
      ],
      "name": "OwnershipTransferred",
      "type": "event"
    },
    {
      "anonymous": false,
      "inputs": [
        {
          "indexed": true,
          "internalType": "address",
          "name": "from",
          "type": "address"
        },
        {
          "indexed": true,
          "internalType": "address",
          "name": "to",
          "type": "address"
        },
        {
          "indexed": true,
          "internalType": "uint256",
          "name": "tokenId",
          "type": "uint256"
        }
      ],
      "name": "Transfer",
      "type": "event"
    },
    {
      "inputs": [
        {
          "internalType": "address",
          "name": "to",
          "type": "address"
        },
        {
          "internalType": "uint256",
          "name": "tokenId",
          "type": "uint256"
        }
      ],
      "name": "approve",
      "outputs": [],
      "stateMutability": "nonpayable",
      "type": "function"
    },
    {
      "inputs": [
        {
          "internalType": "address",
          "name": "owner",
          "type": "address"
        }
      ],
      "name": "balanceOf",
      "outputs": [
        {
          "internalType": "uint256",
          "name": "",
          "type": "uint256"
        }
      ],
      "stateMutability": "view",
      "type": "function"
    },
    {
      "inputs": [
        {
          "internalType": "uint256",
          "name": "tokenId",
          "type": "uint256"
        }
      ],
      "name": "getApproved",
      "outputs": [
        {
          "internalType": "address",
          "name": "",
          "type": "address"
        }
      ],
      "stateMutability": "view",
      "type": "function"
    },
    {
      "inputs": [
        {
          "internalType": "address",
          "name": "owner",
          "type": "address"
        },
        {
          "internalType": "address",
          "name": "operator",
          "type": "address"
        }
      ],
      "name": "isApprovedForAll",
      "outputs": [
        {
          "internalType": "bool",
          "name": "",
          "type": "bool"
        }
      ],
      "stateMutability": "view",
      "type": "function"
    },
    {
      "inputs": [],
      "name": "name",
      "outputs": [
        {
          "internalType": "string",
          "name": "",
          "type": "string"
        }
      ],
      "stateMutability": "view",
      "type": "function"
    },
    {
      "inputs": [],
      "name": "owner",
      "outputs": [
        {
          "internalType": "address",
          "name": "",
          "type": "address"
        }
      ],
      "stateMutability": "view",
      "type": "function"
    },
    {
      "inputs": [
        {
          "internalType": "uint256",
          "name": "tokenId",
          "type": "uint256"
        }
      ],
      "name": "ownerOf",
      "outputs": [
        {
          "internalType": "address",
          "name": "",
          "type": "address"
        }
      ],
      "stateMutability": "view",
      "type": "function"
    },
    {
      "inputs": [],
      "name": "renounceOwnership",
      "outputs": [],
      "stateMutability": "nonpayable",
      "type": "function"
    },
    {
      "inputs": [
        {
          "internalType": "address",
          "name": "from",
          "type": "address"
        },
        {
          "internalType": "address",
          "name": "to",
          "type": "address"
        },
        {
          "internalType": "uint256",
          "name": "tokenId",
          "type": "uint256"
        }
      ],
      "name": "safeTransferFrom",
      "outputs": [],
      "stateMutability": "nonpayable",
      "type": "function"
    },
    {
      "inputs": [
        {
          "internalType": "address",
          "name": "from",
          "type": "address"
        },
        {
          "internalType": "address",
          "name": "to",
          "type": "address"
        },
        {
          "internalType": "uint256",
          "name": "tokenId",
          "type": "uint256"
        },
        {
          "internalType": "bytes",
          "name": "_data",
          "type": "bytes"
        }
      ],
      "name": "safeTransferFrom",
      "outputs": [],
      "stateMutability": "nonpayable",
      "type": "function"
    },
    {
      "inputs": [
        {
          "internalType": "address",
          "name": "operator",
          "type": "address"
        },
        {
          "internalType": "bool",
          "name": "approved",
          "type": "bool"
        }
      ],
      "name": "setApprovalForAll",
      "outputs": [],
      "stateMutability": "nonpayable",
      "type": "function"
    },
    {
      "inputs": [
        {
          "internalType": "bytes4",
          "name": "interfaceId",
          "type": "bytes4"
        }
      ],
      "name": "supportsInterface",
      "outputs": [
        {
          "internalType": "bool",
          "name": "",
          "type": "bool"
        }
      ],
      "stateMutability": "view",
      "type": "function"
    },
    {
      "inputs": [],
      "name": "symbol",
      "outputs": [
        {
          "internalType": "string",
          "name": "",
          "type": "string"
        }
      ],
      "stateMutability": "view",
      "type": "function"
    },
    {
      "inputs": [
        {
          "internalType": "uint256",
          "name": "tokenId",
          "type": "uint256"
        }
      ],
      "name": "tokenURI",
      "outputs": [
        {
          "internalType": "string",
          "name": "",
          "type": "string"
        }
      ],
      "stateMutability": "view",
      "type": "function"
    },
    {
      "inputs": [
        {
          "internalType": "address",
          "name": "from",
          "type": "address"
        },
        {
          "internalType": "address",
          "name": "to",
          "type": "address"
        },
        {
          "internalType": "uint256",
          "name": "tokenId",
          "type": "uint256"
        }
      ],
      "name": "transferFrom",
      "outputs": [],
      "stateMutability": "nonpayable",
      "type": "function"
    },
    {
      "inputs": [
        {
          "internalType": "address",
          "name": "newOwner",
          "type": "address"
        }
      ],
      "name": "transferOwnership",
      "outputs": [],
      "stateMutability": "nonpayable",
      "type": "function"
    },
    {
      "inputs": [
        {
          "internalType": "uint256",
          "name": "count",
          "type": "uint256"
        }
      ],
      "name": "mintNFT",
      "outputs": [],
      "stateMutability": "nonpayable",
      "type": "function"
    }
  ],
  "bytecode": "0x608060405234801562000010575f80fd5b506040518060400160405280600c81526020017f4d696e74436f6e747261637400000000000000000000000000000000000000008152506040518060400160405280600481526020017f5061726b00000000000000000000000000000000000000000000000000000000815250815f90816200008d919062000436565b5080600190816200009f919062000436565b505050620000c2620000b66200010860201b60201c565b6200010f60201b60201c565b3360085f6101000a81548173ffffffffffffffffffffffffffffffffffffffff021916908373ffffffffffffffffffffffffffffffffffffffff1602179055506200051a565b5f33905090565b5f60065f9054906101000a900473ffffffffffffffffffffffffffffffffffffffff1690508160065f6101000a81548173ffffffffffffffffffffffffffffffffffffffff021916908373ffffffffffffffffffffffffffffffffffffffff1602179055508173ffffffffffffffffffffffffffffffffffffffff168173ffffffffffffffffffffffffffffffffffffffff167f8be0079c531659141344cd1fd0a4f28419497f9722a3daafe3b4186f6b6457e060405160405180910390a35050565b5f81519050919050565b7f4e487b71000000000000000000000000000000000000000000000000000000005f52604160045260245ffd5b7f4e487b71000000000000000000000000000000000000000000000000000000005f52602260045260245ffd5b5f60028204905060018216806200024e57607f821691505b60208210810362000264576200026362000209565b5b50919050565b5f819050815f5260205f209050919050565b5f6020601f8301049050919050565b5f82821b905092915050565b5f60088302620002c87fffffffffffffffffffffffffffffffffffffffffffffffffffffffffffffffff826200028b565b620002d486836200028b565b95508019841693508086168417925050509392505050565b5f819050919050565b5f819050919050565b5f6200031e620003186200031284620002ec565b620002f5565b620002ec565b9050919050565b5f819050919050565b6200033983620002fe565b62000351620003488262000325565b84845462000297565b825550505050565b5f90565b6200036762000359565b620003748184846200032e565b505050565b5b818110156200039b576200038f5f826200035d565b6001810190506200037a565b5050565b601f821115620003ea57620003b4816200026a565b620003bf846200027c565b81016020851015620003cf578190505b620003e7620003de856200027c565b83018262000379565b50505b505050565b5f82821c905092915050565b5f6200040c5f1984600802620003ef565b1980831691505092915050565b5f620004268383620003fb565b9150826002028217905092915050565b6200044182620001d2565b67ffffffffffffffff8111156200045d576200045c620001dc565b5b62000469825462000236565b620004768282856200039f565b5f60209050601f831160018114620004ac575f841562000497578287015190505b620004a3858262000419565b86555062000512565b601f198416620004bc866200026a565b5f5b82811015620004e557848901518255600182019150602085019450602081019050620004be565b8683101562000505578489015162000501601f891682620003fb565b8355505b6001600288020188555050505b505050505050565b612b8980620005285f395ff3fe608060405234801561000f575f80fd5b5060043610610109575f3560e01c8063715018a6116100a0578063a22cb4651161006f578063a22cb465146102a1578063b88d4fde146102bd578063c87b56dd146102d9578063e985e9c514610309578063f2fde38b1461033957610109565b8063715018a61461023f5780638da5cb5b14610249578063926427441461026757806395d89b411461028357610109565b806323b872dd116100dc57806323b872dd146101a757806342842e0e146101c35780636352211e146101df57806370a082311461020f57610109565b806301ffc9a71461010d57806306fdde031461013d578063081812fc1461015b578063095ea7b31461018b575b5f80fd5b61012760048036038101906101229190611ac7565b610355565b6040516101349190611b0c565b60405180910390f35b610145610436565b6040516101529190611baf565b60405180910390f35b61017560048036038101906101709190611c02565b6104c5565b6040516101829190611c6c565b60405180910390f35b6101a560048036038101906101a09190611caf565b610546565b005b6101c160048036038101906101bc9190611ced565b61065c565b005b6101dd60048036038101906101d89190611ced565b6106bc565b005b6101f960048036038101906101f49190611c02565b6106db565b6040516102069190611c6c565b60405180910390f35b61022960048036038101906102249190611d3d565b610787565b6040516102369190611d77565b60405180910390f35b61024761083b565b005b6102516108c2565b60405161025e9190611c6c565b60405180910390f35b610281600480360381019061027c9190611c02565b6108ea565b005b61028b6109a9565b6040516102989190611baf565b60405180910390f35b6102bb60048036038101906102b69190611dba565b610a39565b005b6102d760048036038101906102d29190611f24565b610a4f565b005b6102f360048036038101906102ee9190611c02565b610ab1565b6040516103009190611baf565b60405180910390f35b610323600480360381019061031e9190611fa4565b610b55565b6040516103309190611b0c565b60405180910390f35b610353600480360381019061034e9190611d3d565b610be3565b005b5f7f80ac58cd000000000000000000000000000000000000000000000000000000007bffffffffffffffffffffffffffffffffffffffffffffffffffffffff1916827bffffffffffffffffffffffffffffffffffffffffffffffffffffffff1916148061041f57507f5b5e139f000000000000000000000000000000000000000000000000000000007bffffffffffffffffffffffffffffffffffffffffffffffffffffffff1916827bffffffffffffffffffffffffffffffffffffffffffffffffffffffff1916145b8061042f575061042e82610cd9565b5b9050919050565b60605f80546104449061200f565b80601f01602080910402602001604051908101604052809291908181526020018280546104709061200f565b80156104bb5780601f10610492576101008083540402835291602001916104bb565b820191905f5260205f20905b81548152906001019060200180831161049e57829003601f168201915b5050505050905090565b5f6104cf82610d42565b61050e576040517f08c379a0000000000000000000000000000000000000000000000000000000008152600401610505906120af565b60405180910390fd5b60045f8381526020019081526020015f205f9054906101000a900473ffffffffffffffffffffffffffffffffffffffff169050919050565b5f610550826106db565b90508073ffffffffffffffffffffffffffffffffffffffff168373ffffffffffffffffffffffffffffffffffffffff16036105c0576040517f08c379a00000000000000000000000000000000000000000000000000000000081526004016105b790612117565b60405180910390fd5b8073ffffffffffffffffffffffffffffffffffffffff166105df610daa565b73ffffffffffffffffffffffffffffffffffffffff16148061060e575061060d81610608610daa565b610b55565b5b61064d576040517f08c379a0000000000000000000000000000000000000000000000000000000008152600401610644906121a5565b60405180910390fd5b6106578383610db1565b505050565b61066d610667610daa565b82610e67565b6106ac576040517f08c379a00000000000000000000000000000000000000000000000000000000081526004016106a390612233565b60405180910390fd5b6106b7838383610f43565b505050565b6106d683838360405180602001604052805f815250610a4f565b505050565b5f8060025f8481526020019081526020015f205f9054906101000a900473ffffffffffffffffffffffffffffffffffffffff1690505f73ffffffffffffffffffffffffffffffffffffffff168173ffffffffffffffffffffffffffffffffffffffff160361077e576040517f08c379a0000000000000000000000000000000000000000000000000000000008152600401610775906122c1565b60405180910390fd5b80915050919050565b5f8073ffffffffffffffffffffffffffffffffffffffff168273ffffffffffffffffffffffffffffffffffffffff16036107f6576040517f08c379a00000000000000000000000000000000000000000000000000000000081526004016107ed9061234f565b60405180910390fd5b60035f8373ffffffffffffffffffffffffffffffffffffffff1673ffffffffffffffffffffffffffffffffffffffff1681526020019081526020015f20549050919050565b610843610daa565b73ffffffffffffffffffffffffffffffffffffffff166108616108c2565b73ffffffffffffffffffffffffffffffffffffffff16146108b7576040517f08c379a00000000000000000000000000000000000000000000000000000000081526004016108ae906123b7565b60405180910390fd5b6108c05f61119e565b565b5f60065f9054906101000a900473ffffffffffffffffffffffffffffffffffffffff16905090565b6108f2610daa565b73ffffffffffffffffffffffffffffffffffffffff166109106108c2565b73ffffffffffffffffffffffffffffffffffffffff1614610966576040517f08c379a000000000000000000000000000000000000000000000000000000000815260040161095d906123b7565b60405180910390fd5b5f5b818110156109a55761097a6007611261565b5f6109856007611275565b90506109913382611281565b50808061099d90612402565b915050610968565b5050565b6060600180546109b89061200f565b80601f01602080910402602001604051908101604052809291908181526020018280546109e49061200f565b8015610a2f5780601f10610a0657610100808354040283529160200191610a2f565b820191905f5260205f20905b815481529060010190602001808311610a1257829003601f168201915b5050505050905090565b610a4b610a44610daa565b8383611450565b5050565b610a60610a5a610daa565b83610e67565b610a9f576040517f08c379a0000000000000000000000000000000000000000000000000000000008152600401610a9690612233565b60405180910390fd5b610aab848484846115b7565b50505050565b6060610abc82610d42565b610afb576040517f08c379a0000000000000000000000000000000000000000000000000000000008152600401610af2906124b9565b60405180910390fd5b5f610b04611626565b90505f815111610b225760405180602001604052805f815250610b4d565b80610b2c8461163c565b604051602001610b3d929190612511565b6040516020818303038152906040525b915050919050565b5f60055f8473ffffffffffffffffffffffffffffffffffffffff1673ffffffffffffffffffffffffffffffffffffffff1681526020019081526020015f205f8373ffffffffffffffffffffffffffffffffffffffff1673ffffffffffffffffffffffffffffffffffffffff1681526020019081526020015f205f9054906101000a900460ff16905092915050565b610beb610daa565b73ffffffffffffffffffffffffffffffffffffffff16610c096108c2565b73ffffffffffffffffffffffffffffffffffffffff1614610c5f576040517f08c379a0000000000000000000000000000000000000000000000000000000008152600401610c56906123b7565b60405180910390fd5b5f73ffffffffffffffffffffffffffffffffffffffff168173ffffffffffffffffffffffffffffffffffffffff1603610ccd576040517f08c379a0000000000000000000000000000000000000000000000000000000008152600401610cc4906125a4565b60405180910390fd5b610cd68161119e565b50565b5f7f01ffc9a7000000000000000000000000000000000000000000000000000000007bffffffffffffffffffffffffffffffffffffffffffffffffffffffff1916827bffffffffffffffffffffffffffffffffffffffffffffffffffffffff1916149050919050565b5f8073ffffffffffffffffffffffffffffffffffffffff1660025f8481526020019081526020015f205f9054906101000a900473ffffffffffffffffffffffffffffffffffffffff1673ffffffffffffffffffffffffffffffffffffffff1614159050919050565b5f33905090565b8160045f8381526020019081526020015f205f6101000a81548173ffffffffffffffffffffffffffffffffffffffff021916908373ffffffffffffffffffffffffffffffffffffffff160217905550808273ffffffffffffffffffffffffffffffffffffffff16610e21836106db565b73ffffffffffffffffffffffffffffffffffffffff167f8c5be1e5ebec7d5bd14f71427d1e84f3dd0314c0f7b2291e5b200ac8c7c3b92560405160405180910390a45050565b5f610e7182610d42565b610eb0576040517f08c379a0000000000000000000000000000000000000000000000000000000008152600401610ea790612632565b60405180910390fd5b5f610eba836106db565b90508073ffffffffffffffffffffffffffffffffffffffff168473ffffffffffffffffffffffffffffffffffffffff161480610efc5750610efb8185610b55565b5b80610f3a57508373ffffffffffffffffffffffffffffffffffffffff16610f22846104c5565b73ffffffffffffffffffffffffffffffffffffffff16145b91505092915050565b8273ffffffffffffffffffffffffffffffffffffffff16610f63826106db565b73ffffffffffffffffffffffffffffffffffffffff1614610fb9576040517f08c379a0000000000000000000000000000000000000000000000000000000008152600401610fb0906126c0565b60405180910390fd5b5f73ffffffffffffffffffffffffffffffffffffffff168273ffffffffffffffffffffffffffffffffffffffff1603611027576040517f08c379a000000000000000000000000000000000000000000000000000000000815260040161101e9061274e565b60405180910390fd5b611032838383611795565b61103c5f82610db1565b600160035f8573ffffffffffffffffffffffffffffffffffffffff1673ffffffffffffffffffffffffffffffffffffffff1681526020019081526020015f205f828254611089919061276c565b92505081905550600160035f8473ffffffffffffffffffffffffffffffffffffffff1673ffffffffffffffffffffffffffffffffffffffff1681526020019081526020015f205f8282546110dd919061279f565b925050819055508160025f8381526020019081526020015f205f6101000a81548173ffffffffffffffffffffffffffffffffffffffff021916908373ffffffffffffffffffffffffffffffffffffffff160217905550808273ffffffffffffffffffffffffffffffffffffffff168473ffffffffffffffffffffffffffffffffffffffff167fddf252ad1be2c89b69c2b068fc378daa952ba7f163c4a11628f55a4df523b3ef60405160405180910390a461119983838361179a565b505050565b5f60065f9054906101000a900473ffffffffffffffffffffffffffffffffffffffff1690508160065f6101000a81548173ffffffffffffffffffffffffffffffffffffffff021916908373ffffffffffffffffffffffffffffffffffffffff1602179055508173ffffffffffffffffffffffffffffffffffffffff168173ffffffffffffffffffffffffffffffffffffffff167f8be0079c531659141344cd1fd0a4f28419497f9722a3daafe3b4186f6b6457e060405160405180910390a35050565b6001815f015f828254019250508190555050565b5f815f01549050919050565b5f73ffffffffffffffffffffffffffffffffffffffff168273ffffffffffffffffffffffffffffffffffffffff16036112ef576040517f08c379a00000000000000000000000000000000000000000000000000000000081526004016112e69061281c565b60405180910390fd5b6112f881610d42565b15611338576040517f08c379a000000000000000000000000000000000000000000000000000000000815260040161132f90612884565b60405180910390fd5b6113435f8383611795565b600160035f8473ffffffffffffffffffffffffffffffffffffffff1673ffffffffffffffffffffffffffffffffffffffff1681526020019081526020015f205f828254611390919061279f565b925050819055508160025f8381526020019081526020015f205f6101000a81548173ffffffffffffffffffffffffffffffffffffffff021916908373ffffffffffffffffffffffffffffffffffffffff160217905550808273ffffffffffffffffffffffffffffffffffffffff165f73ffffffffffffffffffffffffffffffffffffffff167fddf252ad1be2c89b69c2b068fc378daa952ba7f163c4a11628f55a4df523b3ef60405160405180910390a461144c5f838361179a565b5050565b8173ffffffffffffffffffffffffffffffffffffffff168373ffffffffffffffffffffffffffffffffffffffff16036114be576040517f08c379a00000000000000000000000000000000000000000000000000000000081526004016114b5906128ec565b60405180910390fd5b8060055f8573ffffffffffffffffffffffffffffffffffffffff1673ffffffffffffffffffffffffffffffffffffffff1681526020019081526020015f205f8473ffffffffffffffffffffffffffffffffffffffff1673ffffffffffffffffffffffffffffffffffffffff1681526020019081526020015f205f6101000a81548160ff0219169083151502179055508173ffffffffffffffffffffffffffffffffffffffff168373ffffffffffffffffffffffffffffffffffffffff167f17307eab39ab6107e8899845ad3d59bd9653f200f220920489ca2b5937696c31836040516115aa9190611b0c565b60405180910390a3505050565b6115c2848484610f43565b6115ce8484848461179f565b806115e157506115e0848484846118ef565b5b611620576040517f08c379a0000000000000000000000000000000000000000000000000000000008152600401611617906129a0565b60405180910390fd5b50505050565b606060405180602001604052805f815250905090565b60605f8203611682576040518060400160405280600181526020017f30000000000000000000000000000000000000000000000000000000000000008152509050611790565b5f8290505f5b5f82146116b157808061169a90612402565b915050600a826116aa91906129eb565b9150611688565b5f8167ffffffffffffffff8111156116cc576116cb611e00565b5b6040519080825280601f01601f1916602001820160405280156116fe5781602001600182028036833780820191505090505b5090505b5f851461178957600182611716919061276c565b9150600a856117259190612a1b565b6030611731919061279f565b60f81b81838151811061174757611746612a4b565b5b60200101907effffffffffffffffffffffffffffffffffffffffffffffffffffffffffffff191690815f1a905350600a8561178291906129eb565b9450611702565b8093505050505b919050565b505050565b505050565b5f6117bf8473ffffffffffffffffffffffffffffffffffffffff16611a3f565b156118e2578373ffffffffffffffffffffffffffffffffffffffff16636745782b6117e8610daa565b8786866040518563ffffffff1660e01b815260040161180a9493929190612aca565b6020604051808303815f875af192505050801561184557506040513d601f19601f820116820180604052508101906118429190612b28565b60015b611892573d805f8114611873576040519150601f19603f3d011682016040523d82523d5f602084013e611878565b606091505b505f81510361188a575f9150506118e7565b805181602001fd5b636745782b60e01b7bffffffffffffffffffffffffffffffffffffffffffffffffffffffff1916817bffffffffffffffffffffffffffffffffffffffffffffffffffffffff1916149150506118e7565b600190505b949350505050565b5f61190f8473ffffffffffffffffffffffffffffffffffffffff16611a3f565b15611a32578373ffffffffffffffffffffffffffffffffffffffff1663150b7a02611938610daa565b8786866040518563ffffffff1660e01b815260040161195a9493929190612aca565b6020604051808303815f875af192505050801561199557506040513d601f19601f820116820180604052508101906119929190612b28565b60015b6119e2573d805f81146119c3576040519150601f19603f3d011682016040523d82523d5f602084013e6119c8565b606091505b505f8151036119da575f915050611a37565b805181602001fd5b63150b7a0260e01b7bffffffffffffffffffffffffffffffffffffffffffffffffffffffff1916817bffffffffffffffffffffffffffffffffffffffffffffffffffffffff191614915050611a37565b600190505b949350505050565b5f808273ffffffffffffffffffffffffffffffffffffffff163b119050919050565b5f604051905090565b5f80fd5b5f80fd5b5f7fffffffff0000000000000000000000000000000000000000000000000000000082169050919050565b611aa681611a72565b8114611ab0575f80fd5b50565b5f81359050611ac181611a9d565b92915050565b5f60208284031215611adc57611adb611a6a565b5b5f611ae984828501611ab3565b91505092915050565b5f8115159050919050565b611b0681611af2565b82525050565b5f602082019050611b1f5f830184611afd565b92915050565b5f81519050919050565b5f82825260208201905092915050565b5f5b83811015611b5c578082015181840152602081019050611b41565b5f8484015250505050565b5f601f19601f8301169050919050565b5f611b8182611b25565b611b8b8185611b2f565b9350611b9b818560208601611b3f565b611ba481611b67565b840191505092915050565b5f6020820190508181035f830152611bc78184611b77565b905092915050565b5f819050919050565b611be181611bcf565b8114611beb575f80fd5b50565b5f81359050611bfc81611bd8565b92915050565b5f60208284031215611c1757611c16611a6a565b5b5f611c2484828501611bee565b91505092915050565b5f73ffffffffffffffffffffffffffffffffffffffff82169050919050565b5f611c5682611c2d565b9050919050565b611c6681611c4c565b82525050565b5f602082019050611c7f5f830184611c5d565b92915050565b611c8e81611c4c565b8114611c98575f80fd5b50565b5f81359050611ca981611c85565b92915050565b5f8060408385031215611cc557611cc4611a6a565b5b5f611cd285828601611c9b565b9250506020611ce385828601611bee565b9150509250929050565b5f805f60608486031215611d0457611d03611a6a565b5b5f611d1186828701611c9b565b9350506020611d2286828701611c9b565b9250506040611d3386828701611bee565b9150509250925092565b5f60208284031215611d5257611d51611a6a565b5b5f611d5f84828501611c9b565b91505092915050565b611d7181611bcf565b82525050565b5f602082019050611d8a5f830184611d68565b92915050565b611d9981611af2565b8114611da3575f80fd5b50565b5f81359050611db481611d90565b92915050565b5f8060408385031215611dd057611dcf611a6a565b5b5f611ddd85828601611c9b565b9250506020611dee85828601611da6565b9150509250929050565b5f80fd5b5f80fd5b7f4e487b71000000000000000000000000000000000000000000000000000000005f52604160045260245ffd5b611e3682611b67565b810181811067ffffffffffffffff82111715611e5557611e54611e00565b5b80604052505050565b5f611e67611a61565b9050611e738282611e2d565b919050565b5f67ffffffffffffffff821115611e9257611e91611e00565b5b611e9b82611b67565b9050602081019050919050565b828183375f83830152505050565b5f611ec8611ec384611e78565b611e5e565b905082815260208101848484011115611ee457611ee3611dfc565b5b611eef848285611ea8565b509392505050565b5f82601f830112611f0b57611f0a611df8565b5b8135611f1b848260208601611eb6565b91505092915050565b5f805f8060808587031215611f3c57611f3b611a6a565b5b5f611f4987828801611c9b565b9450506020611f5a87828801611c9b565b9350506040611f6b87828801611bee565b925050606085013567ffffffffffffffff811115611f8c57611f8b611a6e565b5b611f9887828801611ef7565b91505092959194509250565b5f8060408385031215611fba57611fb9611a6a565b5b5f611fc785828601611c9b565b9250506020611fd885828601611c9b565b9150509250929050565b7f4e487b71000000000000000000000000000000000000000000000000000000005f52602260045260245ffd5b5f600282049050600182168061202657607f821691505b60208210810361203957612038611fe2565b5b50919050565b7f4b495031373a20617070726f76656420717565727920666f72206e6f6e6578695f8201527f7374656e7420746f6b656e000000000000000000000000000000000000000000602082015250565b5f612099602b83611b2f565b91506120a48261203f565b604082019050919050565b5f6020820190508181035f8301526120c68161208d565b9050919050565b7f4b495031373a20617070726f76616c20746f2063757272656e74206f776e65725f82015250565b5f612101602083611b2f565b915061210c826120cd565b602082019050919050565b5f6020820190508181035f83015261212e816120f5565b9050919050565b7f4b495031373a20617070726f76652063616c6c6572206973206e6f74206f776e5f8201527f6572206e6f7220617070726f76656420666f7220616c6c000000000000000000602082015250565b5f61218f603783611b2f565b915061219a82612135565b604082019050919050565b5f6020820190508181035f8301526121bc81612183565b9050919050565b7f4b495031373a207472616e736665722063616c6c6572206973206e6f74206f775f8201527f6e6572206e6f7220617070726f76656400000000000000000000000000000000602082015250565b5f61221d603083611b2f565b9150612228826121c3565b604082019050919050565b5f6020820190508181035f83015261224a81612211565b9050919050565b7f4b495031373a206f776e657220717565727920666f72206e6f6e6578697374655f8201527f6e7420746f6b656e000000000000000000000000000000000000000000000000602082015250565b5f6122ab602883611b2f565b91506122b682612251565b604082019050919050565b5f6020820190508181035f8301526122d88161229f565b9050919050565b7f4b495031373a2061646472657373207a65726f206973206e6f7420612076616c5f8201527f6964206f776e6572000000000000000000000000000000000000000000000000602082015250565b5f612339602883611b2f565b9150612344826122df565b604082019050919050565b5f6020820190508181035f8301526123668161232d565b9050919050565b7f4f776e61626c653a2063616c6c6572206973206e6f7420746865206f776e65725f82015250565b5f6123a1602083611b2f565b91506123ac8261236d565b602082019050919050565b5f6020820190508181035f8301526123ce81612395565b9050919050565b7f4e487b71000000000000000000000000000000000000000000000000000000005f52601160045260245ffd5b5f61240c82611bcf565b91507fffffffffffffffffffffffffffffffffffffffffffffffffffffffffffffffff820361243e5761243d6123d5565b5b600182019050919050565b7f4b495031374d657461646174613a2055524920717565727920666f72206e6f6e5f8201527f6578697374656e7420746f6b656e000000000000000000000000000000000000602082015250565b5f6124a3602e83611b2f565b91506124ae82612449565b604082019050919050565b5f6020820190508181035f8301526124d081612497565b9050919050565b5f81905092915050565b5f6124eb82611b25565b6124f581856124d7565b9350612505818560208601611b3f565b80840191505092915050565b5f61251c82856124e1565b915061252882846124e1565b91508190509392505050565b7f4f776e61626c653a206e6577206f776e657220697320746865207a65726f20615f8201527f6464726573730000000000000000000000000000000000000000000000000000602082015250565b5f61258e602683611b2f565b915061259982612534565b604082019050919050565b5f6020820190508181035f8301526125bb81612582565b9050919050565b7f4b495031373a206f70657261746f7220717565727920666f72206e6f6e6578695f8201527f7374656e7420746f6b656e000000000000000000000000000000000000000000602082015250565b5f61261c602b83611b2f565b9150612627826125c2565b604082019050919050565b5f6020820190508181035f83015261264981612610565b9050919050565b7f4b495031373a207472616e736665722066726f6d20696e636f7272656374206f5f8201527f776e657200000000000000000000000000000000000000000000000000000000602082015250565b5f6126aa602483611b2f565b91506126b582612650565b604082019050919050565b5f6020820190508181035f8301526126d78161269e565b9050919050565b7f4b495031373a207472616e7366657220746f20746865207a65726f20616464725f8201527f6573730000000000000000000000000000000000000000000000000000000000602082015250565b5f612738602383611b2f565b9150612743826126de565b604082019050919050565b5f6020820190508181035f8301526127658161272c565b9050919050565b5f61277682611bcf565b915061278183611bcf565b9250828203905081811115612799576127986123d5565b5b92915050565b5f6127a982611bcf565b91506127b483611bcf565b92508282019050808211156127cc576127cb6123d5565b5b92915050565b7f4b495031373a206d696e7420746f20746865207a65726f2061646472657373005f82015250565b5f612806601f83611b2f565b9150612811826127d2565b602082019050919050565b5f6020820190508181035f830152612833816127fa565b9050919050565b7f4b495031373a20746f6b656e20616c7265616479206d696e74656400000000005f82015250565b5f61286e601b83611b2f565b91506128798261283a565b602082019050919050565b5f6020820190508181035f83015261289b81612862565b9050919050565b7f4b495031373a20617070726f766520746f2063616c6c657200000000000000005f82015250565b5f6128d6601883611b2f565b91506128e1826128a2565b602082019050919050565b5f6020820190508181035f830152612903816128ca565b9050919050565b7f4b495031373a207472616e7366657220746f206e6f6e20494b495031375265635f8201527f65697665722f49455243373231526563656976657220696d706c656d656e746560208201527f7200000000000000000000000000000000000000000000000000000000000000604082015250565b5f61298a604183611b2f565b91506129958261290a565b606082019050919050565b5f6020820190508181035f8301526129b78161297e565b9050919050565b7f4e487b71000000000000000000000000000000000000000000000000000000005f52601260045260245ffd5b5f6129f582611bcf565b9150612a0083611bcf565b925082612a1057612a0f6129be565b5b828204905092915050565b5f612a2582611bcf565b9150612a3083611bcf565b925082612a4057612a3f6129be565b5b828206905092915050565b7f4e487b71000000000000000000000000000000000000000000000000000000005f52603260045260245ffd5b5f81519050919050565b5f82825260208201905092915050565b5f612a9c82612a78565b612aa68185612a82565b9350612ab6818560208601611b3f565b612abf81611b67565b840191505092915050565b5f608082019050612add5f830187611c5d565b612aea6020830186611c5d565b612af76040830185611d68565b8181036060830152612b098184612a92565b905095945050505050565b5f81519050612b2281611a9d565b92915050565b5f60208284031215612b3d57612b3c611a6a565b5b5f612b4a84828501612b14565b9150509291505056fea2646970667358221220bd2c115b649242144c70f4e333528e9395e1d6181082406181d387d1b923f3ec64736f6c63430008150033",
  "immutableReferences": {},
  "source": "// \r\n// SPDX-License-Identifier: MIT\r\n\r\npragma solidity 0.8.21;\r\n\r\nimport \"@klaytn/contracts/access/Ownable.sol\";\r\nimport \"@klaytn/contracts/utils/Counters.sol\";\r\nimport \"@klaytn/contracts/KIP/token/KIP17/KIP17.sol\";\r\nimport \"@klaytn/contracts/KIP/token/KIP17/extensions/IKIP17Metadata.sol\";\r\n\r\ncontract MintContract is KIP17, Ownable {\r\n    using Counters for Counters.Counter;\r\n    Counters.Counter private _tokenIds;\r\n\r\n    address private _owner;\r\n\r\n    constructor() public KIP17(\"MintContract\", \"Park\") {\r\n        _owner = msg.sender;\r\n    }\r\n\r\n    function mintNFT(uint count) public onlyOwner {\r\n        for(uint i=0;i<count;i++){\r\n            _tokenIds.increment();\r\n            uint256 newItemId = _tokenIds.current();\r\n\r\n            _mint(msg.sender, newItemId);\r\n        }\r\n    }\r\n}",
  "sourcePath": "C:\\Users\\Hyundo\\Desktop\\MyFile\\Programming\\CaptoneDesign\\web\\ownsaemiro-blockchain\\contracts\\MintContract.sol",
  "compiler": {
    "name": "solc",
    "version": "0.8.21+commit.d9974bed.Emscripten.clang"
  },
  "schemaVersion": "3.4.16",
  "updatedAt": "2024-06-04T15:29:20.190Z",
  "devdoc": {
    "events": {
      "Approval(address,address,uint256)": {
        "details": "Emitted when `owner` enables `approved` to manage the `tokenId` token."
      },
      "ApprovalForAll(address,address,bool)": {
        "details": "Emitted when `owner` enables or disables (`approved`) `operator` to manage all of its assets."
      },
      "Transfer(address,address,uint256)": {
        "details": "Emitted when `tokenId` token is transferred from `from` to `to`."
      }
    },
    "kind": "dev",
    "methods": {
      "approve(address,uint256)": {
        "details": "See {IKIP17-approve}."
      },
      "balanceOf(address)": {
        "details": "See {IKIP17-balanceOf}."
      },
      "getApproved(uint256)": {
        "details": "See {IKIP17-getApproved}."
      },
      "isApprovedForAll(address,address)": {
        "details": "See {IKIP17-isApprovedForAll}."
      },
      "name()": {
        "details": "See {IKIP17Metadata-name}."
      },
      "owner()": {
        "details": "Returns the address of the current owner."
      },
      "ownerOf(uint256)": {
        "details": "See {IKIP17-ownerOf}."
      },
      "renounceOwnership()": {
        "details": "Leaves the contract without owner. It will not be possible to call `onlyOwner` functions anymore. Can only be called by the current owner. NOTE: Renouncing ownership will leave the contract without an owner, thereby removing any functionality that is only available to the owner."
      },
      "safeTransferFrom(address,address,uint256)": {
        "details": "See {IKIP17-safeTransferFrom}."
      },
      "safeTransferFrom(address,address,uint256,bytes)": {
        "details": "See {IKIP17-safeTransferFrom}."
      },
      "setApprovalForAll(address,bool)": {
        "details": "See {IKIP17-setApprovalForAll}."
      },
      "supportsInterface(bytes4)": {
        "details": "See {IKIP13-supportsInterface}."
      },
      "symbol()": {
        "details": "See {IKIP17Metadata-symbol}."
      },
      "tokenURI(uint256)": {
        "details": "See {IKIP17Metadata-tokenURI}."
      },
      "transferFrom(address,address,uint256)": {
        "details": "See {IKIP17-transferFrom}."
      },
      "transferOwnership(address)": {
        "details": "Transfers ownership of the contract to a new account (`newOwner`). Can only be called by the current owner."
      }
    },
    "version": 1
  },
  "userdoc": {
    "kind": "user",
    "methods": {},
    "version": 1
  }
}