{
  "contractName": "MintGemToken",
  "abi": [
    {
      "inputs": [
        {
          "internalType": "string",
          "name": "_name",
          "type": "string"
        },
        {
          "internalType": "string",
          "name": "_symbol",
          "type": "string"
        }
      ],
      "stateMutability": "nonpayable",
      "type": "constructor"
    },
    {
      "inputs": [],
      "name": "ERC721EnumerableForbiddenBatchMint",
      "type": "error"
    },
    {
      "inputs": [
        {
          "internalType": "address",
          "name": "sender",
          "type": "address"
        },
        {
          "internalType": "uint256",
          "name": "tokenId",
          "type": "uint256"
        },
        {
          "internalType": "address",
          "name": "owner",
          "type": "address"
        }
      ],
      "name": "ERC721IncorrectOwner",
      "type": "error"
    },
    {
      "inputs": [
        {
          "internalType": "address",
          "name": "operator",
          "type": "address"
        },
        {
          "internalType": "uint256",
          "name": "tokenId",
          "type": "uint256"
        }
      ],
      "name": "ERC721InsufficientApproval",
      "type": "error"
    },
    {
      "inputs": [
        {
          "internalType": "address",
          "name": "approver",
          "type": "address"
        }
      ],
      "name": "ERC721InvalidApprover",
      "type": "error"
    },
    {
      "inputs": [
        {
          "internalType": "address",
          "name": "operator",
          "type": "address"
        }
      ],
      "name": "ERC721InvalidOperator",
      "type": "error"
    },
    {
      "inputs": [
        {
          "internalType": "address",
          "name": "owner",
          "type": "address"
        }
      ],
      "name": "ERC721InvalidOwner",
      "type": "error"
    },
    {
      "inputs": [
        {
          "internalType": "address",
          "name": "receiver",
          "type": "address"
        }
      ],
      "name": "ERC721InvalidReceiver",
      "type": "error"
    },
    {
      "inputs": [
        {
          "internalType": "address",
          "name": "sender",
          "type": "address"
        }
      ],
      "name": "ERC721InvalidSender",
      "type": "error"
    },
    {
      "inputs": [
        {
          "internalType": "uint256",
          "name": "tokenId",
          "type": "uint256"
        }
      ],
      "name": "ERC721NonexistentToken",
      "type": "error"
    },
    {
      "inputs": [
        {
          "internalType": "address",
          "name": "owner",
          "type": "address"
        },
        {
          "internalType": "uint256",
          "name": "index",
          "type": "uint256"
        }
      ],
      "name": "ERC721OutOfBoundsIndex",
      "type": "error"
    },
    {
      "inputs": [
        {
          "internalType": "address",
          "name": "owner",
          "type": "address"
        }
      ],
      "name": "OwnableInvalidOwner",
      "type": "error"
    },
    {
      "inputs": [
        {
          "internalType": "address",
          "name": "account",
          "type": "address"
        }
      ],
      "name": "OwnableUnauthorizedAccount",
      "type": "error"
    },
    {
      "anonymous": false,
      "inputs": [
        {
          "indexed": true,
          "internalType": "address",
          "name": "owner",
          "type": "address"
        },
        {
          "indexed": true,
          "internalType": "address",
          "name": "approved",
          "type": "address"
        },
        {
          "indexed": true,
          "internalType": "uint256",
          "name": "tokenId",
          "type": "uint256"
        }
      ],
      "name": "Approval",
      "type": "event"
    },
    {
      "anonymous": false,
      "inputs": [
        {
          "indexed": true,
          "internalType": "address",
          "name": "owner",
          "type": "address"
        },
        {
          "indexed": true,
          "internalType": "address",
          "name": "operator",
          "type": "address"
        },
        {
          "indexed": false,
          "internalType": "bool",
          "name": "approved",
          "type": "bool"
        }
      ],
      "name": "ApprovalForAll",
      "type": "event"
    },
    {
      "anonymous": false,
      "inputs": [
        {
          "indexed": true,
          "internalType": "address",
          "name": "previousOwner",
          "type": "address"
        },
        {
          "indexed": true,
          "internalType": "address",
          "name": "newOwner",
          "type": "address"
        }
      ],
      "name": "OwnershipTransferred",
      "type": "event"
    },
    {
      "anonymous": false,
      "inputs": [
        {
          "indexed": true,
          "internalType": "address",
          "name": "from",
          "type": "address"
        },
        {
          "indexed": true,
          "internalType": "address",
          "name": "to",
          "type": "address"
        },
        {
          "indexed": true,
          "internalType": "uint256",
          "name": "tokenId",
          "type": "uint256"
        }
      ],
      "name": "Transfer",
      "type": "event"
    },
    {
      "inputs": [],
      "name": "GEM_TOKEN_PRICE",
      "outputs": [
        {
          "internalType": "uint256",
          "name": "",
          "type": "uint256"
        }
      ],
      "stateMutability": "view",
      "type": "function"
    },
    {
      "inputs": [],
      "name": "MAX_TOKEN_COUNT",
      "outputs": [
        {
          "internalType": "uint256",
          "name": "",
          "type": "uint256"
        }
      ],
      "stateMutability": "view",
      "type": "function"
    },
    {
      "inputs": [],
      "name": "TOKEN_RANK_LENGTH",
      "outputs": [
        {
          "internalType": "uint256",
          "name": "",
          "type": "uint256"
        }
      ],
      "stateMutability": "view",
      "type": "function"
    },
    {
      "inputs": [],
      "name": "TOKEN_TYPE_LENGTH",
      "outputs": [
        {
          "internalType": "uint256",
          "name": "",
          "type": "uint256"
        }
      ],
      "stateMutability": "view",
      "type": "function"
    },
    {
      "inputs": [
        {
          "internalType": "address",
          "name": "to",
          "type": "address"
        },
        {
          "internalType": "uint256",
          "name": "tokenId",
          "type": "uint256"
        }
      ],
      "name": "approve",
      "outputs": [],
      "stateMutability": "nonpayable",
      "type": "function"
    },
    {
      "inputs": [
        {
          "internalType": "address",
          "name": "owner",
          "type": "address"
        }
      ],
      "name": "balanceOf",
      "outputs": [
        {
          "internalType": "uint256",
          "name": "",
          "type": "uint256"
        }
      ],
      "stateMutability": "view",
      "type": "function"
    },
    {
      "inputs": [
        {
          "internalType": "uint256",
          "name": "",
          "type": "uint256"
        },
        {
          "internalType": "uint256",
          "name": "",
          "type": "uint256"
        }
      ],
      "name": "gemTokenCount",
      "outputs": [
        {
          "internalType": "uint256",
          "name": "",
          "type": "uint256"
        }
      ],
      "stateMutability": "view",
      "type": "function"
    },
    {
      "inputs": [
        {
          "internalType": "uint256",
          "name": "",
          "type": "uint256"
        }
      ],
      "name": "gemTokenData",
      "outputs": [
        {
          "internalType": "uint256",
          "name": "gemTokenRank",
          "type": "uint256"
        },
        {
          "internalType": "uint256",
          "name": "gemTokenType",
          "type": "uint256"
        }
      ],
      "stateMutability": "view",
      "type": "function"
    },
    {
      "inputs": [
        {
          "internalType": "uint256",
          "name": "tokenId",
          "type": "uint256"
        }
      ],
      "name": "getApproved",
      "outputs": [
        {
          "internalType": "address",
          "name": "",
          "type": "address"
        }
      ],
      "stateMutability": "view",
      "type": "function"
    },
    {
      "inputs": [
        {
          "internalType": "address",
          "name": "owner",
          "type": "address"
        },
        {
          "internalType": "address",
          "name": "operator",
          "type": "address"
        }
      ],
      "name": "isApprovedForAll",
      "outputs": [
        {
          "internalType": "bool",
          "name": "",
          "type": "bool"
        }
      ],
      "stateMutability": "view",
      "type": "function"
    },
    {
      "inputs": [],
      "name": "metadataURI",
      "outputs": [
        {
          "internalType": "string",
          "name": "",
          "type": "string"
        }
      ],
      "stateMutability": "view",
      "type": "function"
    },
    {
      "inputs": [],
      "name": "name",
      "outputs": [
        {
          "internalType": "string",
          "name": "",
          "type": "string"
        }
      ],
      "stateMutability": "view",
      "type": "function"
    },
    {
      "inputs": [],
      "name": "owner",
      "outputs": [
        {
          "internalType": "address",
          "name": "",
          "type": "address"
        }
      ],
      "stateMutability": "view",
      "type": "function"
    },
    {
      "inputs": [
        {
          "internalType": "uint256",
          "name": "tokenId",
          "type": "uint256"
        }
      ],
      "name": "ownerOf",
      "outputs": [
        {
          "internalType": "address",
          "name": "",
          "type": "address"
        }
      ],
      "stateMutability": "view",
      "type": "function"
    },
    {
      "inputs": [],
      "name": "renounceOwnership",
      "outputs": [],
      "stateMutability": "nonpayable",
      "type": "function"
    },
    {
      "inputs": [
        {
          "internalType": "address",
          "name": "from",
          "type": "address"
        },
        {
          "internalType": "address",
          "name": "to",
          "type": "address"
        },
        {
          "internalType": "uint256",
          "name": "tokenId",
          "type": "uint256"
        }
      ],
      "name": "safeTransferFrom",
      "outputs": [],
      "stateMutability": "nonpayable",
      "type": "function"
    },
    {
      "inputs": [
        {
          "internalType": "address",
          "name": "from",
          "type": "address"
        },
        {
          "internalType": "address",
          "name": "to",
          "type": "address"
        },
        {
          "internalType": "uint256",
          "name": "tokenId",
          "type": "uint256"
        },
        {
          "internalType": "bytes",
          "name": "data",
          "type": "bytes"
        }
      ],
      "name": "safeTransferFrom",
      "outputs": [],
      "stateMutability": "nonpayable",
      "type": "function"
    },
    {
      "inputs": [
        {
          "internalType": "address",
          "name": "operator",
          "type": "address"
        },
        {
          "internalType": "bool",
          "name": "approved",
          "type": "bool"
        }
      ],
      "name": "setApprovalForAll",
      "outputs": [],
      "stateMutability": "nonpayable",
      "type": "function"
    },
    {
      "inputs": [
        {
          "internalType": "bytes4",
          "name": "interfaceId",
          "type": "bytes4"
        }
      ],
      "name": "supportsInterface",
      "outputs": [
        {
          "internalType": "bool",
          "name": "",
          "type": "bool"
        }
      ],
      "stateMutability": "view",
      "type": "function"
    },
    {
      "inputs": [],
      "name": "symbol",
      "outputs": [
        {
          "internalType": "string",
          "name": "",
          "type": "string"
        }
      ],
      "stateMutability": "view",
      "type": "function"
    },
    {
      "inputs": [
        {
          "internalType": "uint256",
          "name": "index",
          "type": "uint256"
        }
      ],
      "name": "tokenByIndex",
      "outputs": [
        {
          "internalType": "uint256",
          "name": "",
          "type": "uint256"
        }
      ],
      "stateMutability": "view",
      "type": "function"
    },
    {
      "inputs": [
        {
          "internalType": "address",
          "name": "owner",
          "type": "address"
        },
        {
          "internalType": "uint256",
          "name": "index",
          "type": "uint256"
        }
      ],
      "name": "tokenOfOwnerByIndex",
      "outputs": [
        {
          "internalType": "uint256",
          "name": "",
          "type": "uint256"
        }
      ],
      "stateMutability": "view",
      "type": "function"
    },
    {
      "inputs": [],
      "name": "totalSupply",
      "outputs": [
        {
          "internalType": "uint256",
          "name": "",
          "type": "uint256"
        }
      ],
      "stateMutability": "view",
      "type": "function"
    },
    {
      "inputs": [
        {
          "internalType": "address",
          "name": "from",
          "type": "address"
        },
        {
          "internalType": "address",
          "name": "to",
          "type": "address"
        },
        {
          "internalType": "uint256",
          "name": "tokenId",
          "type": "uint256"
        }
      ],
      "name": "transferFrom",
      "outputs": [],
      "stateMutability": "nonpayable",
      "type": "function"
    },
    {
      "inputs": [
        {
          "internalType": "address",
          "name": "newOwner",
          "type": "address"
        }
      ],
      "name": "transferOwnership",
      "outputs": [],
      "stateMutability": "nonpayable",
      "type": "function"
    },
    {
      "inputs": [
        {
          "internalType": "uint256",
          "name": "_tokenId",
          "type": "uint256"
        }
      ],
      "name": "tokenURI",
      "outputs": [
        {
          "internalType": "string",
          "name": "",
          "type": "string"
        }
      ],
      "stateMutability": "view",
      "type": "function"
    },
    {
      "inputs": [
        {
          "internalType": "uint256",
          "name": "amount",
          "type": "uint256"
        }
      ],
      "name": "mintGemToken",
      "outputs": [],
      "stateMutability": "payable",
      "type": "function"
    },
    {
      "inputs": [],
      "name": "getGemTokenCount",
      "outputs": [
        {
          "internalType": "uint256[4][4]",
          "name": "",
          "type": "uint256[4][4]"
        }
      ],
      "stateMutability": "view",
      "type": "function"
    },
    {
      "inputs": [
        {
          "internalType": "uint256",
          "name": "_tokenId",
          "type": "uint256"
        }
      ],
      "name": "getGemTokenRank",
      "outputs": [
        {
          "internalType": "uint256",
          "name": "",
          "type": "uint256"
        }
      ],
      "stateMutability": "view",
      "type": "function"
    },
    {
      "inputs": [
        {
          "internalType": "uint256",
          "name": "_tokenId",
          "type": "uint256"
        }
      ],
      "name": "getGemTokenType",
      "outputs": [
        {
          "internalType": "uint256",
          "name": "",
          "type": "uint256"
        }
      ],
      "stateMutability": "view",
      "type": "function"
    }
  ],
  "bytecode": "0x608060405234801562000010575f80fd5b50604051620037a5380380620037a5833981810160405281019062000036919062000333565b338282815f9081620000499190620005ed565b5080600190816200005b9190620005ed565b5050505f73ffffffffffffffffffffffffffffffffffffffff168173ffffffffffffffffffffffffffffffffffffffff1603620000d1575f6040517f1e4fbdf7000000000000000000000000000000000000000000000000000000008152600401620000c8919062000714565b60405180910390fd5b620000e281620000eb60201b60201c565b5050506200072f565b5f600a5f9054906101000a900473ffffffffffffffffffffffffffffffffffffffff16905081600a5f6101000a81548173ffffffffffffffffffffffffffffffffffffffff021916908373ffffffffffffffffffffffffffffffffffffffff1602179055508173ffffffffffffffffffffffffffffffffffffffff168173ffffffffffffffffffffffffffffffffffffffff167f8be0079c531659141344cd1fd0a4f28419497f9722a3daafe3b4186f6b6457e060405160405180910390a35050565b5f604051905090565b5f80fd5b5f80fd5b5f80fd5b5f80fd5b5f601f19601f8301169050919050565b7f4e487b71000000000000000000000000000000000000000000000000000000005f52604160045260245ffd5b6200020f82620001c7565b810181811067ffffffffffffffff82111715620002315762000230620001d7565b5b80604052505050565b5f62000245620001ae565b905062000253828262000204565b919050565b5f67ffffffffffffffff821115620002755762000274620001d7565b5b6200028082620001c7565b9050602081019050919050565b5f5b83811015620002ac5780820151818401526020810190506200028f565b5f8484015250505050565b5f620002cd620002c78462000258565b6200023a565b905082815260208101848484011115620002ec57620002eb620001c3565b5b620002f98482856200028d565b509392505050565b5f82601f830112620003185762000317620001bf565b5b81516200032a848260208601620002b7565b91505092915050565b5f80604083850312156200034c576200034b620001b7565b5b5f83015167ffffffffffffffff8111156200036c576200036b620001bb565b5b6200037a8582860162000301565b925050602083015167ffffffffffffffff8111156200039e576200039d620001bb565b5b620003ac8582860162000301565b9150509250929050565b5f81519050919050565b7f4e487b71000000000000000000000000000000000000000000000000000000005f52602260045260245ffd5b5f60028204905060018216806200040557607f821691505b6020821081036200041b576200041a620003c0565b5b50919050565b5f819050815f5260205f209050919050565b5f6020601f8301049050919050565b5f82821b905092915050565b5f600883026200047f7fffffffffffffffffffffffffffffffffffffffffffffffffffffffffffffffff8262000442565b6200048b868362000442565b95508019841693508086168417925050509392505050565b5f819050919050565b5f819050919050565b5f620004d5620004cf620004c984620004a3565b620004ac565b620004a3565b9050919050565b5f819050919050565b620004f083620004b5565b62000508620004ff82620004dc565b8484546200044e565b825550505050565b5f90565b6200051e62000510565b6200052b818484620004e5565b505050565b5b818110156200055257620005465f8262000514565b60018101905062000531565b5050565b601f821115620005a1576200056b8162000421565b620005768462000433565b8101602085101562000586578190505b6200059e620005958562000433565b83018262000530565b50505b505050565b5f82821c905092915050565b5f620005c35f1984600802620005a6565b1980831691505092915050565b5f620005dd8383620005b2565b9150826002028217905092915050565b620005f882620003b6565b67ffffffffffffffff811115620006145762000613620001d7565b5b620006208254620003ed565b6200062d82828562000556565b5f60209050601f83116001811462000663575f84156200064e578287015190505b6200065a8582620005d0565b865550620006c9565b601f198416620006738662000421565b5f5b828110156200069c5784890151825560018201915060208501945060208101905062000675565b86831015620006bc5784890151620006b8601f891682620005b2565b8355505b6001600288020188555050505b505050505050565b5f73ffffffffffffffffffffffffffffffffffffffff82169050919050565b5f620006fc82620006d1565b9050919050565b6200070e81620006f0565b82525050565b5f602082019050620007295f83018462000703565b92915050565b613068806200073d5f395ff3fe6080604052600436106101cc575f3560e01c80636352211e116100f6578063a22cb46511610094578063d0bbb0d711610063578063d0bbb0d71461069c578063e985e9c5146106c6578063f2fde38b14610702578063fdef166b1461072a576101cc565b8063a22cb465146105d4578063a3805054146105fc578063b88d4fde14610638578063c87b56dd14610660576101cc565b8063715018a6116100d0578063715018a6146105405780638da5cb5b1461055657806391f4e2ed1461058057806395d89b41146105aa576101cc565b80636352211e1461049e57806364eeeb73146104da57806370a0823114610504576101cc565b806323b872dd1161016e57806333bea36b1161013d57806333bea36b146103c25780633c38ba44146103fe57806342842e0e1461043a5780634f6ccce714610462576101cc565b806323b872dd146103185780632867d750146103405780632f745c591461035c5780633158357f14610398576101cc565b806307c7f4eb116101aa57806307c7f4eb14610260578063081812fc1461028a578063095ea7b3146102c657806318160ddd146102ee576101cc565b806301ffc9a7146101d057806303ee438c1461020c57806306fdde0314610236575b5f80fd5b3480156101db575f80fd5b506101f660048036038101906101f1919061244f565b610767565b6040516102039190612494565b60405180910390f35b348015610217575f80fd5b506102206107e0565b60405161022d9190612537565b60405180910390f35b348015610241575f80fd5b5061024a61086c565b6040516102579190612537565b60405180910390f35b34801561026b575f80fd5b506102746108fb565b604051610281919061256f565b60405180910390f35b348015610295575f80fd5b506102b060048036038101906102ab91906125b2565b610900565b6040516102bd919061261c565b60405180910390f35b3480156102d1575f80fd5b506102ec60048036038101906102e7919061265f565b61091b565b005b3480156102f9575f80fd5b50610302610931565b60405161030f919061256f565b60405180910390f35b348015610323575f80fd5b5061033e6004803603810190610339919061269d565b61093d565b005b61035a600480360381019061035591906125b2565b610a3c565b005b348015610367575f80fd5b50610382600480360381019061037d919061265f565b610ac3565b60405161038f919061256f565b60405180910390f35b3480156103a3575f80fd5b506103ac610b67565b6040516103b99190612828565b60405180910390f35b3480156103cd575f80fd5b506103e860048036038101906103e39190612842565b610be9565b6040516103f5919061256f565b60405180910390f35b348015610409575f80fd5b50610424600480360381019061041f91906125b2565b610c14565b604051610431919061256f565b60405180910390f35b348015610445575f80fd5b50610460600480360381019061045b919061269d565b610c30565b005b34801561046d575f80fd5b50610488600480360381019061048391906125b2565b610c4f565b604051610495919061256f565b60405180910390f35b3480156104a9575f80fd5b506104c460048036038101906104bf91906125b2565b610cc1565b6040516104d1919061261c565b60405180910390f35b3480156104e5575f80fd5b506104ee610cd2565b6040516104fb919061256f565b60405180910390f35b34801561050f575f80fd5b5061052a60048036038101906105259190612880565b610cd7565b604051610537919061256f565b60405180910390f35b34801561054b575f80fd5b50610554610d8d565b005b348015610561575f80fd5b5061056a610da0565b604051610577919061261c565b60405180910390f35b34801561058b575f80fd5b50610594610dc8565b6040516105a1919061256f565b60405180910390f35b3480156105b5575f80fd5b506105be610dd4565b6040516105cb9190612537565b60405180910390f35b3480156105df575f80fd5b506105fa60048036038101906105f591906128d5565b610e64565b005b348015610607575f80fd5b50610622600480360381019061061d91906125b2565b610e7a565b60405161062f919061256f565b60405180910390f35b348015610643575f80fd5b5061065e60048036038101906106599190612a3f565b610e97565b005b34801561066b575f80fd5b50610686600480360381019061068191906125b2565b610eb4565b6040516106939190612537565b60405180910390f35b3480156106a7575f80fd5b506106b0610f23565b6040516106bd919061256f565b60405180910390f35b3480156106d1575f80fd5b506106ec60048036038101906106e79190612abf565b610f29565b6040516106f99190612494565b60405180910390f35b34801561070d575f80fd5b5061072860048036038101906107239190612880565b610fb7565b005b348015610735575f80fd5b50610750600480360381019061074b91906125b2565b61103b565b60405161075e929190612afd565b60405180910390f35b5f7f780e9d63000000000000000000000000000000000000000000000000000000007bffffffffffffffffffffffffffffffffffffffffffffffffffffffff1916827bffffffffffffffffffffffffffffffffffffffffffffffffffffffff191614806107d957506107d88261105b565b5b9050919050565b600b80546107ed90612b51565b80601f016020809104026020016040519081016040528092919081815260200182805461081990612b51565b80156108645780601f1061083b57610100808354040283529160200191610864565b820191905f5260205f20905b81548152906001019060200180831161084757829003601f168201915b505050505081565b60605f805461087a90612b51565b80601f01602080910402602001604051908101604052809291908181526020018280546108a690612b51565b80156108f15780601f106108c8576101008083540402835291602001916108f1565b820191905f5260205f20905b8154815290600101906020018083116108d457829003601f168201915b5050505050905090565b600481565b5f61090a8261113c565b50610914826111c2565b9050919050565b61092d82826109286111fb565b611202565b5050565b5f600880549050905090565b5f73ffffffffffffffffffffffffffffffffffffffff168273ffffffffffffffffffffffffffffffffffffffff16036109ad575f6040517f64a0ae920000000000000000000000000000000000000000000000000000000081526004016109a4919061261c565b60405180910390fd5b5f6109c083836109bb6111fb565b611214565b90508373ffffffffffffffffffffffffffffffffffffffff168173ffffffffffffffffffffffffffffffffffffffff1614610a36578382826040517f64283d7b000000000000000000000000000000000000000000000000000000008152600401610a2d93929190612b81565b60405180910390fd5b50505050565b5f5b81811015610abf578161271011610a8a576040517f08c379a0000000000000000000000000000000000000000000000000000000008152600401610a8190612c00565b60405180910390fd5b5f6001610a95610931565b610a9f9190612c4b565b9050610aab338261132e565b508080610ab790612c7e565b915050610a3e565b5050565b5f610acd83610cd7565b8210610b125782826040517fa57d13dc000000000000000000000000000000000000000000000000000000008152600401610b09929190612cc5565b60405180910390fd5b60065f8473ffffffffffffffffffffffffffffffffffffffff1673ffffffffffffffffffffffffffffffffffffffff1681526020019081526020015f205f8381526020019081526020015f2054905092915050565b610b6f61239a565b600d600480602002604051908101604052809291905f905b82821015610be057838260040201600480602002604051908101604052809291908260048015610bcc576020028201915b815481526020019060010190808311610bb8575b505050505081526020019060010190610b87565b50505050905090565b600d8260048110610bf8575f80fd5b600402018160048110610c09575f80fd5b015f91509150505481565b5f600c5f8381526020019081526020015f205f01549050919050565b610c4a83838360405180602001604052805f815250610e97565b505050565b5f610c58610931565b8210610c9d575f826040517fa57d13dc000000000000000000000000000000000000000000000000000000008152600401610c94929190612cc5565b60405180910390fd5b60088281548110610cb157610cb0612cec565b5b905f5260205f2001549050919050565b5f610ccb8261113c565b9050919050565b600481565b5f8073ffffffffffffffffffffffffffffffffffffffff168273ffffffffffffffffffffffffffffffffffffffff1603610d48575f6040517f89c62b64000000000000000000000000000000000000000000000000000000008152600401610d3f919061261c565b60405180910390fd5b60035f8373ffffffffffffffffffffffffffffffffffffffff1673ffffffffffffffffffffffffffffffffffffffff1681526020019081526020015f20549050919050565b610d9561134b565b610d9e5f6113d2565b565b5f600a5f9054906101000a900473ffffffffffffffffffffffffffffffffffffffff16905090565b670de0b6b3a764000081565b606060018054610de390612b51565b80601f0160208091040260200160405190810160405280929190818152602001828054610e0f90612b51565b8015610e5a5780601f10610e3157610100808354040283529160200191610e5a565b820191905f5260205f20905b815481529060010190602001808311610e3d57829003601f168201915b5050505050905090565b610e76610e6f6111fb565b8383611495565b5050565b5f600c5f8381526020019081526020015f20600101549050919050565b610ea284848461093d565b610eae848484846115fe565b50505050565b60605f610ed3600c5f8581526020019081526020015f205f01546117b0565b90505f610ef3600c5f8681526020019081526020015f20600101546117b0565b9050600b8282604051602001610f0b93929190612e79565b60405160208183030381529060405292505050919050565b61271081565b5f60055f8473ffffffffffffffffffffffffffffffffffffffff1673ffffffffffffffffffffffffffffffffffffffff1681526020019081526020015f205f8373ffffffffffffffffffffffffffffffffffffffff1673ffffffffffffffffffffffffffffffffffffffff1681526020019081526020015f205f9054906101000a900460ff16905092915050565b610fbf61134b565b5f73ffffffffffffffffffffffffffffffffffffffff168173ffffffffffffffffffffffffffffffffffffffff160361102f575f6040517f1e4fbdf7000000000000000000000000000000000000000000000000000000008152600401611026919061261c565b60405180910390fd5b611038816113d2565b50565b600c602052805f5260405f205f91509050805f0154908060010154905082565b5f7f80ac58cd000000000000000000000000000000000000000000000000000000007bffffffffffffffffffffffffffffffffffffffffffffffffffffffff1916827bffffffffffffffffffffffffffffffffffffffffffffffffffffffff1916148061112557507f5b5e139f000000000000000000000000000000000000000000000000000000007bffffffffffffffffffffffffffffffffffffffffffffffffffffffff1916827bffffffffffffffffffffffffffffffffffffffffffffffffffffffff1916145b8061113557506111348261187a565b5b9050919050565b5f80611147836118e3565b90505f73ffffffffffffffffffffffffffffffffffffffff168173ffffffffffffffffffffffffffffffffffffffff16036111b957826040517f7e2732890000000000000000000000000000000000000000000000000000000081526004016111b0919061256f565b60405180910390fd5b80915050919050565b5f60045f8381526020019081526020015f205f9054906101000a900473ffffffffffffffffffffffffffffffffffffffff169050919050565b5f33905090565b61120f838383600161191c565b505050565b5f80611221858585611adb565b90505f73ffffffffffffffffffffffffffffffffffffffff168173ffffffffffffffffffffffffffffffffffffffff16036112645761125f84611ce6565b6112a3565b8473ffffffffffffffffffffffffffffffffffffffff168173ffffffffffffffffffffffffffffffffffffffff16146112a2576112a18185611d2a565b5b5b5f73ffffffffffffffffffffffffffffffffffffffff168573ffffffffffffffffffffffffffffffffffffffff16036112e4576112df84611e74565b611323565b8473ffffffffffffffffffffffffffffffffffffffff168173ffffffffffffffffffffffffffffffffffffffff1614611322576113218585611f34565b5b5b809150509392505050565b611347828260405180602001604052805f815250611fb8565b5050565b6113536111fb565b73ffffffffffffffffffffffffffffffffffffffff16611371610da0565b73ffffffffffffffffffffffffffffffffffffffff16146113d0576113946111fb565b6040517f118cdaa70000000000000000000000000000000000000000000000000000000081526004016113c7919061261c565b60405180910390fd5b565b5f600a5f9054906101000a900473ffffffffffffffffffffffffffffffffffffffff16905081600a5f6101000a81548173ffffffffffffffffffffffffffffffffffffffff021916908373ffffffffffffffffffffffffffffffffffffffff1602179055508173ffffffffffffffffffffffffffffffffffffffff168173ffffffffffffffffffffffffffffffffffffffff167f8be0079c531659141344cd1fd0a4f28419497f9722a3daafe3b4186f6b6457e060405160405180910390a35050565b5f73ffffffffffffffffffffffffffffffffffffffff168273ffffffffffffffffffffffffffffffffffffffff160361150557816040517f5b08ba180000000000000000000000000000000000000000000000000000000081526004016114fc919061261c565b60405180910390fd5b8060055f8573ffffffffffffffffffffffffffffffffffffffff1673ffffffffffffffffffffffffffffffffffffffff1681526020019081526020015f205f8473ffffffffffffffffffffffffffffffffffffffff1673ffffffffffffffffffffffffffffffffffffffff1681526020019081526020015f205f6101000a81548160ff0219169083151502179055508173ffffffffffffffffffffffffffffffffffffffff168373ffffffffffffffffffffffffffffffffffffffff167f17307eab39ab6107e8899845ad3d59bd9653f200f220920489ca2b5937696c31836040516115f19190612494565b60405180910390a3505050565b5f8373ffffffffffffffffffffffffffffffffffffffff163b11156117aa578273ffffffffffffffffffffffffffffffffffffffff1663150b7a026116416111fb565b8685856040518563ffffffff1660e01b81526004016116639493929190612f1c565b6020604051808303815f875af192505050801561169e57506040513d601f19601f8201168201806040525081019061169b9190612f7a565b60015b61171f573d805f81146116cc576040519150601f19603f3d011682016040523d82523d5f602084013e6116d1565b606091505b505f81510361171757836040517f64a0ae9200000000000000000000000000000000000000000000000000000000815260040161170e919061261c565b60405180910390fd5b805181602001fd5b63150b7a0260e01b7bffffffffffffffffffffffffffffffffffffffffffffffffffffffff1916817bffffffffffffffffffffffffffffffffffffffffffffffffffffffff1916146117a857836040517f64a0ae9200000000000000000000000000000000000000000000000000000000815260040161179f919061261c565b60405180910390fd5b505b50505050565b60605f60016117be84611fd3565b0190505f8167ffffffffffffffff8111156117dc576117db61291b565b5b6040519080825280601f01601f19166020018201604052801561180e5781602001600182028036833780820191505090505b5090505f82602001820190505b60011561186f578080600190039150507f3031323334353637383961626364656600000000000000000000000000000000600a86061a8153600a858161186457611863612fa5565b5b0494505f850361181b575b819350505050919050565b5f7f01ffc9a7000000000000000000000000000000000000000000000000000000007bffffffffffffffffffffffffffffffffffffffffffffffffffffffff1916827bffffffffffffffffffffffffffffffffffffffffffffffffffffffff1916149050919050565b5f60025f8381526020019081526020015f205f9054906101000a900473ffffffffffffffffffffffffffffffffffffffff169050919050565b808061195457505f73ffffffffffffffffffffffffffffffffffffffff168273ffffffffffffffffffffffffffffffffffffffff1614155b15611a86575f6119638461113c565b90505f73ffffffffffffffffffffffffffffffffffffffff168373ffffffffffffffffffffffffffffffffffffffff16141580156119cd57508273ffffffffffffffffffffffffffffffffffffffff168173ffffffffffffffffffffffffffffffffffffffff1614155b80156119e057506119de8184610f29565b155b15611a2257826040517fa9fbf51f000000000000000000000000000000000000000000000000000000008152600401611a19919061261c565b60405180910390fd5b8115611a8457838573ffffffffffffffffffffffffffffffffffffffff168273ffffffffffffffffffffffffffffffffffffffff167f8c5be1e5ebec7d5bd14f71427d1e84f3dd0314c0f7b2291e5b200ac8c7c3b92560405160405180910390a45b505b8360045f8581526020019081526020015f205f6101000a81548173ffffffffffffffffffffffffffffffffffffffff021916908373ffffffffffffffffffffffffffffffffffffffff16021790555050505050565b5f80611ae6846118e3565b90505f73ffffffffffffffffffffffffffffffffffffffff168373ffffffffffffffffffffffffffffffffffffffff1614611b2757611b26818486612124565b5b5f73ffffffffffffffffffffffffffffffffffffffff168173ffffffffffffffffffffffffffffffffffffffff1614611bb257611b665f855f8061191c565b600160035f8373ffffffffffffffffffffffffffffffffffffffff1673ffffffffffffffffffffffffffffffffffffffff1681526020019081526020015f205f82825403925050819055505b5f73ffffffffffffffffffffffffffffffffffffffff168573ffffffffffffffffffffffffffffffffffffffff1614611c3157600160035f8773ffffffffffffffffffffffffffffffffffffffff1673ffffffffffffffffffffffffffffffffffffffff1681526020019081526020015f205f82825401925050819055505b8460025f8681526020019081526020015f205f6101000a81548173ffffffffffffffffffffffffffffffffffffffff021916908373ffffffffffffffffffffffffffffffffffffffff160217905550838573ffffffffffffffffffffffffffffffffffffffff168273ffffffffffffffffffffffffffffffffffffffff167fddf252ad1be2c89b69c2b068fc378daa952ba7f163c4a11628f55a4df523b3ef60405160405180910390a4809150509392505050565b60088054905060095f8381526020019081526020015f2081905550600881908060018154018082558091505060019003905f5260205f20015f909190919091505550565b5f611d3483610cd7565b90505f60075f8481526020019081526020015f20549050818114611e0b575f60065f8673ffffffffffffffffffffffffffffffffffffffff1673ffffffffffffffffffffffffffffffffffffffff1681526020019081526020015f205f8481526020019081526020015f205490508060065f8773ffffffffffffffffffffffffffffffffffffffff1673ffffffffffffffffffffffffffffffffffffffff1681526020019081526020015f205f8481526020019081526020015f20819055508160075f8381526020019081526020015f2081905550505b60075f8481526020019081526020015f205f905560065f8573ffffffffffffffffffffffffffffffffffffffff1673ffffffffffffffffffffffffffffffffffffffff1681526020019081526020015f205f8381526020019081526020015f205f905550505050565b5f6001600880549050611e879190612fd2565b90505f60095f8481526020019081526020015f205490505f60088381548110611eb357611eb2612cec565b5b905f5260205f20015490508060088381548110611ed357611ed2612cec565b5b905f5260205f2001819055508160095f8381526020019081526020015f208190555060095f8581526020019081526020015f205f90556008805480611f1b57611f1a613005565b5b600190038181905f5260205f20015f9055905550505050565b5f6001611f4084610cd7565b611f4a9190612fd2565b90508160065f8573ffffffffffffffffffffffffffffffffffffffff1673ffffffffffffffffffffffffffffffffffffffff1681526020019081526020015f205f8381526020019081526020015f20819055508060075f8481526020019081526020015f2081905550505050565b611fc283836121e7565b611fce5f8484846115fe565b505050565b5f805f90507a184f03e93ff9f4daa797ed6e38ed64bf6a1f010000000000000000831061202f577a184f03e93ff9f4daa797ed6e38ed64bf6a1f010000000000000000838161202557612024612fa5565b5b0492506040810190505b6d04ee2d6d415b85acef8100000000831061206c576d04ee2d6d415b85acef8100000000838161206257612061612fa5565b5b0492506020810190505b662386f26fc10000831061209b57662386f26fc10000838161209157612090612fa5565b5b0492506010810190505b6305f5e10083106120c4576305f5e10083816120ba576120b9612fa5565b5b0492506008810190505b61271083106120e95761271083816120df576120de612fa5565b5b0492506004810190505b6064831061210c576064838161210257612101612fa5565b5b0492506002810190505b600a831061211b576001810190505b80915050919050565b61212f8383836122da565b6121e2575f73ffffffffffffffffffffffffffffffffffffffff168373ffffffffffffffffffffffffffffffffffffffff16036121a357806040517f7e27328900000000000000000000000000000000000000000000000000000000815260040161219a919061256f565b60405180910390fd5b81816040517f177e802f0000000000000000000000000000000000000000000000000000000081526004016121d9929190612cc5565b60405180910390fd5b505050565b5f73ffffffffffffffffffffffffffffffffffffffff168273ffffffffffffffffffffffffffffffffffffffff1603612257575f6040517f64a0ae9200000000000000000000000000000000000000000000000000000000815260040161224e919061261c565b60405180910390fd5b5f61226383835f611214565b90505f73ffffffffffffffffffffffffffffffffffffffff168173ffffffffffffffffffffffffffffffffffffffff16146122d5575f6040517f73c6ac6e0000000000000000000000000000000000000000000000000000000081526004016122cc919061261c565b60405180910390fd5b505050565b5f8073ffffffffffffffffffffffffffffffffffffffff168373ffffffffffffffffffffffffffffffffffffffff161415801561239157508273ffffffffffffffffffffffffffffffffffffffff168473ffffffffffffffffffffffffffffffffffffffff16148061235257506123518484610f29565b5b8061239057508273ffffffffffffffffffffffffffffffffffffffff16612378836111c2565b73ffffffffffffffffffffffffffffffffffffffff16145b5b90509392505050565b60405180608001604052806004905b6123b16123c7565b8152602001906001900390816123a95790505090565b6040518060800160405280600490602082028036833780820191505090505090565b5f604051905090565b5f80fd5b5f80fd5b5f7fffffffff0000000000000000000000000000000000000000000000000000000082169050919050565b61242e816123fa565b8114612438575f80fd5b50565b5f8135905061244981612425565b92915050565b5f60208284031215612464576124636123f2565b5b5f6124718482850161243b565b91505092915050565b5f8115159050919050565b61248e8161247a565b82525050565b5f6020820190506124a75f830184612485565b92915050565b5f81519050919050565b5f82825260208201905092915050565b5f5b838110156124e45780820151818401526020810190506124c9565b5f8484015250505050565b5f601f19601f8301169050919050565b5f612509826124ad565b61251381856124b7565b93506125238185602086016124c7565b61252c816124ef565b840191505092915050565b5f6020820190508181035f83015261254f81846124ff565b905092915050565b5f819050919050565b61256981612557565b82525050565b5f6020820190506125825f830184612560565b92915050565b61259181612557565b811461259b575f80fd5b50565b5f813590506125ac81612588565b92915050565b5f602082840312156125c7576125c66123f2565b5b5f6125d48482850161259e565b91505092915050565b5f73ffffffffffffffffffffffffffffffffffffffff82169050919050565b5f612606826125dd565b9050919050565b612616816125fc565b82525050565b5f60208201905061262f5f83018461260d565b92915050565b61263e816125fc565b8114612648575f80fd5b50565b5f8135905061265981612635565b92915050565b5f8060408385031215612675576126746123f2565b5b5f6126828582860161264b565b92505060206126938582860161259e565b9150509250929050565b5f805f606084860312156126b4576126b36123f2565b5b5f6126c18682870161264b565b93505060206126d28682870161264b565b92505060406126e38682870161259e565b9150509250925092565b5f60049050919050565b5f81905092915050565b5f819050919050565b5f60049050919050565b5f81905092915050565b5f819050919050565b61273081612557565b82525050565b5f6127418383612727565b60208301905092915050565b5f602082019050919050565b6127628161270a565b61276c8184612714565b92506127778261271e565b805f5b838110156127a757815161278e8782612736565b96506127998361274d565b92505060018101905061277a565b505050505050565b5f6127ba8383612759565b60808301905092915050565b5f602082019050919050565b6127db816126ed565b6127e581846126f7565b92506127f082612701565b805f5b8381101561282057815161280787826127af565b9650612812836127c6565b9250506001810190506127f3565b505050505050565b5f6102008201905061283c5f8301846127d2565b92915050565b5f8060408385031215612858576128576123f2565b5b5f6128658582860161259e565b92505060206128768582860161259e565b9150509250929050565b5f60208284031215612895576128946123f2565b5b5f6128a28482850161264b565b91505092915050565b6128b48161247a565b81146128be575f80fd5b50565b5f813590506128cf816128ab565b92915050565b5f80604083850312156128eb576128ea6123f2565b5b5f6128f88582860161264b565b9250506020612909858286016128c1565b9150509250929050565b5f80fd5b5f80fd5b7f4e487b71000000000000000000000000000000000000000000000000000000005f52604160045260245ffd5b612951826124ef565b810181811067ffffffffffffffff821117156129705761296f61291b565b5b80604052505050565b5f6129826123e9565b905061298e8282612948565b919050565b5f67ffffffffffffffff8211156129ad576129ac61291b565b5b6129b6826124ef565b9050602081019050919050565b828183375f83830152505050565b5f6129e36129de84612993565b612979565b9050828152602081018484840111156129ff576129fe612917565b5b612a0a8482856129c3565b509392505050565b5f82601f830112612a2657612a25612913565b5b8135612a368482602086016129d1565b91505092915050565b5f805f8060808587031215612a5757612a566123f2565b5b5f612a648782880161264b565b9450506020612a758782880161264b565b9350506040612a868782880161259e565b925050606085013567ffffffffffffffff811115612aa757612aa66123f6565b5b612ab387828801612a12565b91505092959194509250565b5f8060408385031215612ad557612ad46123f2565b5b5f612ae28582860161264b565b9250506020612af38582860161264b565b9150509250929050565b5f604082019050612b105f830185612560565b612b1d6020830184612560565b9392505050565b7f4e487b71000000000000000000000000000000000000000000000000000000005f52602260045260245ffd5b5f6002820490506001821680612b6857607f821691505b602082108103612b7b57612b7a612b24565b5b50919050565b5f606082019050612b945f83018661260d565b612ba16020830185612560565b612bae604083018461260d565b949350505050565b7f596f752065786365656420746865206c696d69746564207175616e746974792e5f82015250565b5f612bea6020836124b7565b9150612bf582612bb6565b602082019050919050565b5f6020820190508181035f830152612c1781612bde565b9050919050565b7f4e487b71000000000000000000000000000000000000000000000000000000005f52601160045260245ffd5b5f612c5582612557565b9150612c6083612557565b9250828201905080821115612c7857612c77612c1e565b5b92915050565b5f612c8882612557565b91507fffffffffffffffffffffffffffffffffffffffffffffffffffffffffffffffff8203612cba57612cb9612c1e565b5b600182019050919050565b5f604082019050612cd85f83018561260d565b612ce56020830184612560565b9392505050565b7f4e487b71000000000000000000000000000000000000000000000000000000005f52603260045260245ffd5b5f81905092915050565b5f819050815f5260205f209050919050565b5f8154612d4181612b51565b612d4b8186612d19565b9450600182165f8114612d655760018114612d7a57612dac565b60ff1983168652811515820286019350612dac565b612d8385612d23565b5f5b83811015612da457815481890152600182019150602081019050612d85565b838801955050505b50505092915050565b7f2f000000000000000000000000000000000000000000000000000000000000005f82015250565b5f612de9600183612d19565b9150612df482612db5565b600182019050919050565b5f612e09826124ad565b612e138185612d19565b9350612e238185602086016124c7565b80840191505092915050565b7f2e6a736f6e0000000000000000000000000000000000000000000000000000005f82015250565b5f612e63600583612d19565b9150612e6e82612e2f565b600582019050919050565b5f612e848286612d35565b9150612e8f82612ddd565b9150612e9b8285612dff565b9150612ea682612ddd565b9150612eb28284612dff565b9150612ebd82612e57565b9150819050949350505050565b5f81519050919050565b5f82825260208201905092915050565b5f612eee82612eca565b612ef88185612ed4565b9350612f088185602086016124c7565b612f11816124ef565b840191505092915050565b5f608082019050612f2f5f83018761260d565b612f3c602083018661260d565b612f496040830185612560565b8181036060830152612f5b8184612ee4565b905095945050505050565b5f81519050612f7481612425565b92915050565b5f60208284031215612f8f57612f8e6123f2565b5b5f612f9c84828501612f66565b91505092915050565b7f4e487b71000000000000000000000000000000000000000000000000000000005f52601260045260245ffd5b5f612fdc82612557565b9150612fe783612557565b9250828203905081811115612fff57612ffe612c1e565b5b92915050565b7f4e487b71000000000000000000000000000000000000000000000000000000005f52603160045260245ffdfea26469706673582212206cffe303815b6c497a679ca23f458e5c8817ceb245df3c243b9b19f5b07870a964736f6c63430008150033",
  "immutableReferences": {},
  "source": "// \r\n// SPDX-License-Identifier: MIT\r\n\r\npragma solidity ^0.8.21;\r\n\r\n// ERC721Enumerable : ERC721 , utility \r\nimport \"@openzeppelin/contracts/token/ERC721/extensions/ERC721Enumerable.sol\";\r\nimport \"@openzeppelin/contracts/utils/Strings.sol\";\r\nimport \"@openzeppelin/contracts/access/Ownable.sol\";\r\n\r\ncontract MintGemToken is ERC721Enumerable, Ownable{\r\n  uint constant public MAX_TOKEN_COUNT = 10000;\r\n  uint constant public TOKEN_RANK_LENGTH = 4;\r\n  uint constant public TOKEN_TYPE_LENGTH = 4;\r\n\r\n  string public metadataURI;\r\n\r\n  // 10^18 peb = 1 Klay\r\n  uint constant public GEM_TOKEN_PRICE = 1000000000000000000;\r\n\r\n  // string memory _metadataURI\r\n  constructor(string memory _name, string memory _symbol) ERC721(_name, _symbol) Ownable(msg.sender) {\r\n\r\n  }\r\n\r\n  struct GemTokenData{\r\n    uint gemTokenRank;\r\n    uint gemTokenType;\r\n  }\r\n\r\n  mapping(uint => GemTokenData) public gemTokenData;\r\n  // uint    GemTokenData output.\r\n  \r\n  uint[TOKEN_RANK_LENGTH][TOKEN_TYPE_LENGTH] public gemTokenCount;\r\n\r\n  // tokenURI    \r\n  function tokenURI(uint _tokenId) override public view returns(string memory){ // string return      memory \r\n    string memory gemTokenRank = Strings.toString(gemTokenData[_tokenId].gemTokenRank);\r\n    string memory gemTokenType = Strings.toString(gemTokenData[_tokenId].gemTokenType);\r\n    \r\n    return string(abi.encodePacked(metadataURI, '/', gemTokenRank, '/', gemTokenType, '.json'));\r\n  }\r\n\r\n  function mintGemToken(uint amount) public payable{\r\n    for (uint i=0;i<amount;i++){\r\n      // require(GEM_TOKEN_PRICE <= msg.value, \"The fee amount is insufficient.\");\r\n      require(MAX_TOKEN_COUNT > amount, \"You exceed the limited quantity.\");\r\n\r\n      uint tokenId = totalSupply() + 1;\r\n\r\n      // GemTokenData memory randomTokenData = randomGenerator(msg.sender, tokenId);\r\n      // gemTokenData[tokenId] = GemTokenData(randomTokenData.gemTokenRank, randomTokenData.gemTokenType);\r\n      // gemTokenCount[randomTokenData.gemTokenRank - 1][randomTokenData.gemTokenType - 1] += 1;\r\n      // payable(owner()).transfer(msg.value); // NFT    Owner   \r\n\r\n      /* _mint  _safeMint  :    Mint  */\r\n      _safeMint(msg.sender, tokenId); // mint  \r\n    }\r\n  }\r\n\r\n  function getGemTokenCount() public view returns(uint[TOKEN_RANK_LENGTH][TOKEN_TYPE_LENGTH] memory){\r\n    return gemTokenCount;\r\n  }\r\n\r\n  function getGemTokenRank(uint _tokenId) public view returns(uint){\r\n    return gemTokenData[_tokenId].gemTokenRank;\r\n  }\r\n\r\n  function getGemTokenType(uint _tokenId) public view returns(uint) {\r\n    return gemTokenData[_tokenId].gemTokenType;\r\n  }\r\n}",
  "sourcePath": "C:\\Users\\Hyundo\\Desktop\\MyFile\\Programming\\CaptoneDesign\\ownsaemiro-blockchain\\contracts\\MintGemToken.sol",
  "compiler": {
    "name": "solc",
    "version": "0.8.21+commit.d9974bed.Emscripten.clang"
  },
  "schemaVersion": "3.4.16",
  "updatedAt": "2024-06-01T06:54:56.710Z",
  "devdoc": {
    "errors": {
      "ERC721EnumerableForbiddenBatchMint()": [
        {
          "details": "Batch mint is not allowed."
        }
      ],
      "ERC721IncorrectOwner(address,uint256,address)": [
        {
          "details": "Indicates an error related to the ownership over a particular token. Used in transfers.",
          "params": {
            "owner": "Address of the current owner of a token.",
            "sender": "Address whose tokens are being transferred.",
            "tokenId": "Identifier number of a token."
          }
        }
      ],
      "ERC721InsufficientApproval(address,uint256)": [
        {
          "details": "Indicates a failure with the `operator`s approval. Used in transfers.",
          "params": {
            "operator": "Address that may be allowed to operate on tokens without being their owner.",
            "tokenId": "Identifier number of a token."
          }
        }
      ],
      "ERC721InvalidApprover(address)": [
        {
          "details": "Indicates a failure with the `approver` of a token to be approved. Used in approvals.",
          "params": {
            "approver": "Address initiating an approval operation."
          }
        }
      ],
      "ERC721InvalidOperator(address)": [
        {
          "details": "Indicates a failure with the `operator` to be approved. Used in approvals.",
          "params": {
            "operator": "Address that may be allowed to operate on tokens without being their owner."
          }
        }
      ],
      "ERC721InvalidOwner(address)": [
        {
          "details": "Indicates that an address can't be an owner. For example, `address(0)` is a forbidden owner in EIP-20. Used in balance queries.",
          "params": {
            "owner": "Address of the current owner of a token."
          }
        }
      ],
      "ERC721InvalidReceiver(address)": [
        {
          "details": "Indicates a failure with the token `receiver`. Used in transfers.",
          "params": {
            "receiver": "Address to which tokens are being transferred."
          }
        }
      ],
      "ERC721InvalidSender(address)": [
        {
          "details": "Indicates a failure with the token `sender`. Used in transfers.",
          "params": {
            "sender": "Address whose tokens are being transferred."
          }
        }
      ],
      "ERC721NonexistentToken(uint256)": [
        {
          "details": "Indicates a `tokenId` whose `owner` is the zero address.",
          "params": {
            "tokenId": "Identifier number of a token."
          }
        }
      ],
      "ERC721OutOfBoundsIndex(address,uint256)": [
        {
          "details": "An `owner`'s token query was out of bounds for `index`. NOTE: The owner being `address(0)` indicates a global out of bounds index."
        }
      ],
      "OwnableInvalidOwner(address)": [
        {
          "details": "The owner is not a valid owner account. (eg. `address(0)`)"
        }
      ],
      "OwnableUnauthorizedAccount(address)": [
        {
          "details": "The caller account is not authorized to perform an operation."
        }
      ]
    },
    "events": {
      "Approval(address,address,uint256)": {
        "details": "Emitted when `owner` enables `approved` to manage the `tokenId` token."
      },
      "ApprovalForAll(address,address,bool)": {
        "details": "Emitted when `owner` enables or disables (`approved`) `operator` to manage all of its assets."
      },
      "Transfer(address,address,uint256)": {
        "details": "Emitted when `tokenId` token is transferred from `from` to `to`."
      }
    },
    "kind": "dev",
    "methods": {
      "approve(address,uint256)": {
        "details": "See {IERC721-approve}."
      },
      "balanceOf(address)": {
        "details": "See {IERC721-balanceOf}."
      },
      "getApproved(uint256)": {
        "details": "See {IERC721-getApproved}."
      },
      "isApprovedForAll(address,address)": {
        "details": "See {IERC721-isApprovedForAll}."
      },
      "name()": {
        "details": "See {IERC721Metadata-name}."
      },
      "owner()": {
        "details": "Returns the address of the current owner."
      },
      "ownerOf(uint256)": {
        "details": "See {IERC721-ownerOf}."
      },
      "renounceOwnership()": {
        "details": "Leaves the contract without owner. It will not be possible to call `onlyOwner` functions. Can only be called by the current owner. NOTE: Renouncing ownership will leave the contract without an owner, thereby disabling any functionality that is only available to the owner."
      },
      "safeTransferFrom(address,address,uint256)": {
        "details": "See {IERC721-safeTransferFrom}."
      },
      "safeTransferFrom(address,address,uint256,bytes)": {
        "details": "See {IERC721-safeTransferFrom}."
      },
      "setApprovalForAll(address,bool)": {
        "details": "See {IERC721-setApprovalForAll}."
      },
      "supportsInterface(bytes4)": {
        "details": "See {IERC165-supportsInterface}."
      },
      "symbol()": {
        "details": "See {IERC721Metadata-symbol}."
      },
      "tokenByIndex(uint256)": {
        "details": "See {IERC721Enumerable-tokenByIndex}."
      },
      "tokenOfOwnerByIndex(address,uint256)": {
        "details": "See {IERC721Enumerable-tokenOfOwnerByIndex}."
      },
      "totalSupply()": {
        "details": "See {IERC721Enumerable-totalSupply}."
      },
      "transferFrom(address,address,uint256)": {
        "details": "See {IERC721-transferFrom}."
      },
      "transferOwnership(address)": {
        "details": "Transfers ownership of the contract to a new account (`newOwner`). Can only be called by the current owner."
      }
    },
    "version": 1
  },
  "userdoc": {
    "kind": "user",
    "methods": {},
    "version": 1
  }
}