{
  "contractName": "MintGemToken",
  "abi": [
    {
      "inputs": [
        {
          "internalType": "string",
          "name": "_name",
          "type": "string"
        },
        {
          "internalType": "string",
          "name": "_symbol",
          "type": "string"
        }
      ],
      "stateMutability": "nonpayable",
      "type": "constructor"
    },
    {
      "inputs": [],
      "name": "ERC721EnumerableForbiddenBatchMint",
      "type": "error"
    },
    {
      "inputs": [
        {
          "internalType": "address",
          "name": "sender",
          "type": "address"
        },
        {
          "internalType": "uint256",
          "name": "tokenId",
          "type": "uint256"
        },
        {
          "internalType": "address",
          "name": "owner",
          "type": "address"
        }
      ],
      "name": "ERC721IncorrectOwner",
      "type": "error"
    },
    {
      "inputs": [
        {
          "internalType": "address",
          "name": "operator",
          "type": "address"
        },
        {
          "internalType": "uint256",
          "name": "tokenId",
          "type": "uint256"
        }
      ],
      "name": "ERC721InsufficientApproval",
      "type": "error"
    },
    {
      "inputs": [
        {
          "internalType": "address",
          "name": "approver",
          "type": "address"
        }
      ],
      "name": "ERC721InvalidApprover",
      "type": "error"
    },
    {
      "inputs": [
        {
          "internalType": "address",
          "name": "operator",
          "type": "address"
        }
      ],
      "name": "ERC721InvalidOperator",
      "type": "error"
    },
    {
      "inputs": [
        {
          "internalType": "address",
          "name": "owner",
          "type": "address"
        }
      ],
      "name": "ERC721InvalidOwner",
      "type": "error"
    },
    {
      "inputs": [
        {
          "internalType": "address",
          "name": "receiver",
          "type": "address"
        }
      ],
      "name": "ERC721InvalidReceiver",
      "type": "error"
    },
    {
      "inputs": [
        {
          "internalType": "address",
          "name": "sender",
          "type": "address"
        }
      ],
      "name": "ERC721InvalidSender",
      "type": "error"
    },
    {
      "inputs": [
        {
          "internalType": "uint256",
          "name": "tokenId",
          "type": "uint256"
        }
      ],
      "name": "ERC721NonexistentToken",
      "type": "error"
    },
    {
      "inputs": [
        {
          "internalType": "address",
          "name": "owner",
          "type": "address"
        },
        {
          "internalType": "uint256",
          "name": "index",
          "type": "uint256"
        }
      ],
      "name": "ERC721OutOfBoundsIndex",
      "type": "error"
    },
    {
      "inputs": [
        {
          "internalType": "address",
          "name": "owner",
          "type": "address"
        }
      ],
      "name": "OwnableInvalidOwner",
      "type": "error"
    },
    {
      "inputs": [
        {
          "internalType": "address",
          "name": "account",
          "type": "address"
        }
      ],
      "name": "OwnableUnauthorizedAccount",
      "type": "error"
    },
    {
      "anonymous": false,
      "inputs": [
        {
          "indexed": true,
          "internalType": "address",
          "name": "owner",
          "type": "address"
        },
        {
          "indexed": true,
          "internalType": "address",
          "name": "approved",
          "type": "address"
        },
        {
          "indexed": true,
          "internalType": "uint256",
          "name": "tokenId",
          "type": "uint256"
        }
      ],
      "name": "Approval",
      "type": "event"
    },
    {
      "anonymous": false,
      "inputs": [
        {
          "indexed": true,
          "internalType": "address",
          "name": "owner",
          "type": "address"
        },
        {
          "indexed": true,
          "internalType": "address",
          "name": "operator",
          "type": "address"
        },
        {
          "indexed": false,
          "internalType": "bool",
          "name": "approved",
          "type": "bool"
        }
      ],
      "name": "ApprovalForAll",
      "type": "event"
    },
    {
      "anonymous": false,
      "inputs": [
        {
          "indexed": true,
          "internalType": "address",
          "name": "previousOwner",
          "type": "address"
        },
        {
          "indexed": true,
          "internalType": "address",
          "name": "newOwner",
          "type": "address"
        }
      ],
      "name": "OwnershipTransferred",
      "type": "event"
    },
    {
      "anonymous": false,
      "inputs": [
        {
          "indexed": true,
          "internalType": "address",
          "name": "from",
          "type": "address"
        },
        {
          "indexed": true,
          "internalType": "address",
          "name": "to",
          "type": "address"
        },
        {
          "indexed": true,
          "internalType": "uint256",
          "name": "tokenId",
          "type": "uint256"
        }
      ],
      "name": "Transfer",
      "type": "event"
    },
    {
      "inputs": [],
      "name": "GEM_TOKEN_PRICE",
      "outputs": [
        {
          "internalType": "uint256",
          "name": "",
          "type": "uint256"
        }
      ],
      "stateMutability": "view",
      "type": "function"
    },
    {
      "inputs": [
        {
          "internalType": "address",
          "name": "to",
          "type": "address"
        },
        {
          "internalType": "uint256",
          "name": "tokenId",
          "type": "uint256"
        }
      ],
      "name": "approve",
      "outputs": [],
      "stateMutability": "nonpayable",
      "type": "function"
    },
    {
      "inputs": [
        {
          "internalType": "address",
          "name": "owner",
          "type": "address"
        }
      ],
      "name": "balanceOf",
      "outputs": [
        {
          "internalType": "uint256",
          "name": "",
          "type": "uint256"
        }
      ],
      "stateMutability": "view",
      "type": "function"
    },
    {
      "inputs": [
        {
          "internalType": "uint256",
          "name": "tokenId",
          "type": "uint256"
        }
      ],
      "name": "getApproved",
      "outputs": [
        {
          "internalType": "address",
          "name": "",
          "type": "address"
        }
      ],
      "stateMutability": "view",
      "type": "function"
    },
    {
      "inputs": [
        {
          "internalType": "address",
          "name": "owner",
          "type": "address"
        },
        {
          "internalType": "address",
          "name": "operator",
          "type": "address"
        }
      ],
      "name": "isApprovedForAll",
      "outputs": [
        {
          "internalType": "bool",
          "name": "",
          "type": "bool"
        }
      ],
      "stateMutability": "view",
      "type": "function"
    },
    {
      "inputs": [],
      "name": "metadataURI",
      "outputs": [
        {
          "internalType": "string",
          "name": "",
          "type": "string"
        }
      ],
      "stateMutability": "view",
      "type": "function"
    },
    {
      "inputs": [],
      "name": "name",
      "outputs": [
        {
          "internalType": "string",
          "name": "",
          "type": "string"
        }
      ],
      "stateMutability": "view",
      "type": "function"
    },
    {
      "inputs": [],
      "name": "owner",
      "outputs": [
        {
          "internalType": "address",
          "name": "",
          "type": "address"
        }
      ],
      "stateMutability": "view",
      "type": "function"
    },
    {
      "inputs": [
        {
          "internalType": "uint256",
          "name": "tokenId",
          "type": "uint256"
        }
      ],
      "name": "ownerOf",
      "outputs": [
        {
          "internalType": "address",
          "name": "",
          "type": "address"
        }
      ],
      "stateMutability": "view",
      "type": "function"
    },
    {
      "inputs": [],
      "name": "renounceOwnership",
      "outputs": [],
      "stateMutability": "nonpayable",
      "type": "function"
    },
    {
      "inputs": [
        {
          "internalType": "address",
          "name": "from",
          "type": "address"
        },
        {
          "internalType": "address",
          "name": "to",
          "type": "address"
        },
        {
          "internalType": "uint256",
          "name": "tokenId",
          "type": "uint256"
        }
      ],
      "name": "safeTransferFrom",
      "outputs": [],
      "stateMutability": "nonpayable",
      "type": "function"
    },
    {
      "inputs": [
        {
          "internalType": "address",
          "name": "from",
          "type": "address"
        },
        {
          "internalType": "address",
          "name": "to",
          "type": "address"
        },
        {
          "internalType": "uint256",
          "name": "tokenId",
          "type": "uint256"
        },
        {
          "internalType": "bytes",
          "name": "data",
          "type": "bytes"
        }
      ],
      "name": "safeTransferFrom",
      "outputs": [],
      "stateMutability": "nonpayable",
      "type": "function"
    },
    {
      "inputs": [
        {
          "internalType": "address",
          "name": "operator",
          "type": "address"
        },
        {
          "internalType": "bool",
          "name": "approved",
          "type": "bool"
        }
      ],
      "name": "setApprovalForAll",
      "outputs": [],
      "stateMutability": "nonpayable",
      "type": "function"
    },
    {
      "inputs": [
        {
          "internalType": "bytes4",
          "name": "interfaceId",
          "type": "bytes4"
        }
      ],
      "name": "supportsInterface",
      "outputs": [
        {
          "internalType": "bool",
          "name": "",
          "type": "bool"
        }
      ],
      "stateMutability": "view",
      "type": "function"
    },
    {
      "inputs": [],
      "name": "symbol",
      "outputs": [
        {
          "internalType": "string",
          "name": "",
          "type": "string"
        }
      ],
      "stateMutability": "view",
      "type": "function"
    },
    {
      "inputs": [
        {
          "internalType": "uint256",
          "name": "index",
          "type": "uint256"
        }
      ],
      "name": "tokenByIndex",
      "outputs": [
        {
          "internalType": "uint256",
          "name": "",
          "type": "uint256"
        }
      ],
      "stateMutability": "view",
      "type": "function"
    },
    {
      "inputs": [
        {
          "internalType": "address",
          "name": "owner",
          "type": "address"
        },
        {
          "internalType": "uint256",
          "name": "index",
          "type": "uint256"
        }
      ],
      "name": "tokenOfOwnerByIndex",
      "outputs": [
        {
          "internalType": "uint256",
          "name": "",
          "type": "uint256"
        }
      ],
      "stateMutability": "view",
      "type": "function"
    },
    {
      "inputs": [
        {
          "internalType": "uint256",
          "name": "tokenId",
          "type": "uint256"
        }
      ],
      "name": "tokenURI",
      "outputs": [
        {
          "internalType": "string",
          "name": "",
          "type": "string"
        }
      ],
      "stateMutability": "view",
      "type": "function"
    },
    {
      "inputs": [],
      "name": "totalSupply",
      "outputs": [
        {
          "internalType": "uint256",
          "name": "",
          "type": "uint256"
        }
      ],
      "stateMutability": "view",
      "type": "function"
    },
    {
      "inputs": [
        {
          "internalType": "address",
          "name": "from",
          "type": "address"
        },
        {
          "internalType": "address",
          "name": "to",
          "type": "address"
        },
        {
          "internalType": "uint256",
          "name": "tokenId",
          "type": "uint256"
        }
      ],
      "name": "transferFrom",
      "outputs": [],
      "stateMutability": "nonpayable",
      "type": "function"
    },
    {
      "inputs": [
        {
          "internalType": "address",
          "name": "newOwner",
          "type": "address"
        }
      ],
      "name": "transferOwnership",
      "outputs": [],
      "stateMutability": "nonpayable",
      "type": "function"
    },
    {
      "inputs": [
        {
          "internalType": "uint256",
          "name": "amount",
          "type": "uint256"
        }
      ],
      "name": "mintGemToken",
      "outputs": [],
      "stateMutability": "payable",
      "type": "function"
    }
  ],
  "bytecode": "0x608060405234801562000010575f80fd5b506040516200306238038062003062833981810160405281019062000036919062000333565b338282815f9081620000499190620005ed565b5080600190816200005b9190620005ed565b5050505f73ffffffffffffffffffffffffffffffffffffffff168173ffffffffffffffffffffffffffffffffffffffff1603620000d1575f6040517f1e4fbdf7000000000000000000000000000000000000000000000000000000008152600401620000c8919062000714565b60405180910390fd5b620000e281620000eb60201b60201c565b5050506200072f565b5f600a5f9054906101000a900473ffffffffffffffffffffffffffffffffffffffff16905081600a5f6101000a81548173ffffffffffffffffffffffffffffffffffffffff021916908373ffffffffffffffffffffffffffffffffffffffff1602179055508173ffffffffffffffffffffffffffffffffffffffff168173ffffffffffffffffffffffffffffffffffffffff167f8be0079c531659141344cd1fd0a4f28419497f9722a3daafe3b4186f6b6457e060405160405180910390a35050565b5f604051905090565b5f80fd5b5f80fd5b5f80fd5b5f80fd5b5f601f19601f8301169050919050565b7f4e487b71000000000000000000000000000000000000000000000000000000005f52604160045260245ffd5b6200020f82620001c7565b810181811067ffffffffffffffff82111715620002315762000230620001d7565b5b80604052505050565b5f62000245620001ae565b905062000253828262000204565b919050565b5f67ffffffffffffffff821115620002755762000274620001d7565b5b6200028082620001c7565b9050602081019050919050565b5f5b83811015620002ac5780820151818401526020810190506200028f565b5f8484015250505050565b5f620002cd620002c78462000258565b6200023a565b905082815260208101848484011115620002ec57620002eb620001c3565b5b620002f98482856200028d565b509392505050565b5f82601f830112620003185762000317620001bf565b5b81516200032a848260208601620002b7565b91505092915050565b5f80604083850312156200034c576200034b620001b7565b5b5f83015167ffffffffffffffff8111156200036c576200036b620001bb565b5b6200037a8582860162000301565b925050602083015167ffffffffffffffff8111156200039e576200039d620001bb565b5b620003ac8582860162000301565b9150509250929050565b5f81519050919050565b7f4e487b71000000000000000000000000000000000000000000000000000000005f52602260045260245ffd5b5f60028204905060018216806200040557607f821691505b6020821081036200041b576200041a620003c0565b5b50919050565b5f819050815f5260205f209050919050565b5f6020601f8301049050919050565b5f82821b905092915050565b5f600883026200047f7fffffffffffffffffffffffffffffffffffffffffffffffffffffffffffffffff8262000442565b6200048b868362000442565b95508019841693508086168417925050509392505050565b5f819050919050565b5f819050919050565b5f620004d5620004cf620004c984620004a3565b620004ac565b620004a3565b9050919050565b5f819050919050565b620004f083620004b5565b62000508620004ff82620004dc565b8484546200044e565b825550505050565b5f90565b6200051e62000510565b6200052b818484620004e5565b505050565b5b818110156200055257620005465f8262000514565b60018101905062000531565b5050565b601f821115620005a1576200056b8162000421565b620005768462000433565b8101602085101562000586578190505b6200059e620005958562000433565b83018262000530565b50505b505050565b5f82821c905092915050565b5f620005c35f1984600802620005a6565b1980831691505092915050565b5f620005dd8383620005b2565b9150826002028217905092915050565b620005f882620003b6565b67ffffffffffffffff811115620006145762000613620001d7565b5b620006208254620003ed565b6200062d82828562000556565b5f60209050601f83116001811462000663575f84156200064e578287015190505b6200065a8582620005d0565b865550620006c9565b601f198416620006738662000421565b5f5b828110156200069c5784890151825560018201915060208501945060208101905062000675565b86831015620006bc5784890151620006b8601f891682620005b2565b8355505b6001600288020188555050505b505050505050565b5f73ffffffffffffffffffffffffffffffffffffffff82169050919050565b5f620006fc82620006d1565b9050919050565b6200070e81620006f0565b82525050565b5f602082019050620007295f83018462000703565b92915050565b612925806200073d5f395ff3fe608060405260043610610134575f3560e01c80636352211e116100aa57806395d89b411161006e57806395d89b411461041c578063a22cb46514610446578063b88d4fde1461046e578063c87b56dd14610496578063e985e9c5146104d2578063f2fde38b1461050e57610134565b80636352211e1461033a57806370a0823114610376578063715018a6146103b25780638da5cb5b146103c857806391f4e2ed146103f257610134565b806318160ddd116100fc57806318160ddd1461022c57806323b872dd146102565780632867d7501461027e5780632f745c591461029a57806342842e0e146102d65780634f6ccce7146102fe57610134565b806301ffc9a71461013857806303ee438c1461017457806306fdde031461019e578063081812fc146101c8578063095ea7b314610204575b5f80fd5b348015610143575f80fd5b5061015e60048036038101906101599190612082565b610536565b60405161016b91906120c7565b60405180910390f35b34801561017f575f80fd5b506101886105af565b604051610195919061216a565b60405180910390f35b3480156101a9575f80fd5b506101b261063b565b6040516101bf919061216a565b60405180910390f35b3480156101d3575f80fd5b506101ee60048036038101906101e991906121bd565b6106ca565b6040516101fb9190612227565b60405180910390f35b34801561020f575f80fd5b5061022a6004803603810190610225919061226a565b6106e5565b005b348015610237575f80fd5b506102406106fb565b60405161024d91906122b7565b60405180910390f35b348015610261575f80fd5b5061027c600480360381019061027791906122d0565b610707565b005b610298600480360381019061029391906121bd565b610806565b005b3480156102a5575f80fd5b506102c060048036038101906102bb919061226a565b610849565b6040516102cd91906122b7565b60405180910390f35b3480156102e1575f80fd5b506102fc60048036038101906102f791906122d0565b6108ed565b005b348015610309575f80fd5b50610324600480360381019061031f91906121bd565b61090c565b60405161033191906122b7565b60405180910390f35b348015610345575f80fd5b50610360600480360381019061035b91906121bd565b61097e565b60405161036d9190612227565b60405180910390f35b348015610381575f80fd5b5061039c60048036038101906103979190612320565b61098f565b6040516103a991906122b7565b60405180910390f35b3480156103bd575f80fd5b506103c6610a45565b005b3480156103d3575f80fd5b506103dc610a58565b6040516103e99190612227565b60405180910390f35b3480156103fd575f80fd5b50610406610a80565b60405161041391906122b7565b60405180910390f35b348015610427575f80fd5b50610430610a8c565b60405161043d919061216a565b60405180910390f35b348015610451575f80fd5b5061046c60048036038101906104679190612375565b610b1c565b005b348015610479575f80fd5b50610494600480360381019061048f91906124df565b610b32565b005b3480156104a1575f80fd5b506104bc60048036038101906104b791906121bd565b610b4f565b6040516104c9919061216a565b60405180910390f35b3480156104dd575f80fd5b506104f860048036038101906104f3919061255f565b610bb5565b60405161050591906120c7565b60405180910390f35b348015610519575f80fd5b50610534600480360381019061052f9190612320565b610c43565b005b5f7f780e9d63000000000000000000000000000000000000000000000000000000007bffffffffffffffffffffffffffffffffffffffffffffffffffffffff1916827bffffffffffffffffffffffffffffffffffffffffffffffffffffffff191614806105a857506105a782610cc7565b5b9050919050565b600b80546105bc906125ca565b80601f01602080910402602001604051908101604052809291908181526020018280546105e8906125ca565b80156106335780601f1061060a57610100808354040283529160200191610633565b820191905f5260205f20905b81548152906001019060200180831161061657829003601f168201915b505050505081565b60605f8054610649906125ca565b80601f0160208091040260200160405190810160405280929190818152602001828054610675906125ca565b80156106c05780601f10610697576101008083540402835291602001916106c0565b820191905f5260205f20905b8154815290600101906020018083116106a357829003601f168201915b5050505050905090565b5f6106d482610da8565b506106de82610e2e565b9050919050565b6106f782826106f2610e67565b610e6e565b5050565b5f600880549050905090565b5f73ffffffffffffffffffffffffffffffffffffffff168273ffffffffffffffffffffffffffffffffffffffff1603610777575f6040517f64a0ae9200000000000000000000000000000000000000000000000000000000815260040161076e9190612227565b60405180910390fd5b5f61078a8383610785610e67565b610e80565b90508373ffffffffffffffffffffffffffffffffffffffff168173ffffffffffffffffffffffffffffffffffffffff1614610800578382826040517f64283d7b0000000000000000000000000000000000000000000000000000000081526004016107f7939291906125fa565b60405180910390fd5b50505050565b5f5b81811015610845575f600161081b6106fb565b610825919061265c565b90506108313382610f9a565b50808061083d9061268f565b915050610808565b5050565b5f6108538361098f565b82106108985782826040517fa57d13dc00000000000000000000000000000000000000000000000000000000815260040161088f9291906126d6565b60405180910390fd5b60065f8473ffffffffffffffffffffffffffffffffffffffff1673ffffffffffffffffffffffffffffffffffffffff1681526020019081526020015f205f8381526020019081526020015f2054905092915050565b61090783838360405180602001604052805f815250610b32565b505050565b5f6109156106fb565b821061095a575f826040517fa57d13dc0000000000000000000000000000000000000000000000000000000081526004016109519291906126d6565b60405180910390fd5b6008828154811061096e5761096d6126fd565b5b905f5260205f2001549050919050565b5f61098882610da8565b9050919050565b5f8073ffffffffffffffffffffffffffffffffffffffff168273ffffffffffffffffffffffffffffffffffffffff1603610a00575f6040517f89c62b640000000000000000000000000000000000000000000000000000000081526004016109f79190612227565b60405180910390fd5b60035f8373ffffffffffffffffffffffffffffffffffffffff1673ffffffffffffffffffffffffffffffffffffffff1681526020019081526020015f20549050919050565b610a4d610fb7565b610a565f61103e565b565b5f600a5f9054906101000a900473ffffffffffffffffffffffffffffffffffffffff16905090565b670de0b6b3a764000081565b606060018054610a9b906125ca565b80601f0160208091040260200160405190810160405280929190818152602001828054610ac7906125ca565b8015610b125780601f10610ae957610100808354040283529160200191610b12565b820191905f5260205f20905b815481529060010190602001808311610af557829003601f168201915b5050505050905090565b610b2e610b27610e67565b8383611101565b5050565b610b3d848484610707565b610b498484848461126a565b50505050565b6060610b5a82610da8565b505f610b6461141c565b90505f815111610b825760405180602001604052805f815250610bad565b80610b8c84611432565b604051602001610b9d929190612764565b6040516020818303038152906040525b915050919050565b5f60055f8473ffffffffffffffffffffffffffffffffffffffff1673ffffffffffffffffffffffffffffffffffffffff1681526020019081526020015f205f8373ffffffffffffffffffffffffffffffffffffffff1673ffffffffffffffffffffffffffffffffffffffff1681526020019081526020015f205f9054906101000a900460ff16905092915050565b610c4b610fb7565b5f73ffffffffffffffffffffffffffffffffffffffff168173ffffffffffffffffffffffffffffffffffffffff1603610cbb575f6040517f1e4fbdf7000000000000000000000000000000000000000000000000000000008152600401610cb29190612227565b60405180910390fd5b610cc48161103e565b50565b5f7f80ac58cd000000000000000000000000000000000000000000000000000000007bffffffffffffffffffffffffffffffffffffffffffffffffffffffff1916827bffffffffffffffffffffffffffffffffffffffffffffffffffffffff19161480610d9157507f5b5e139f000000000000000000000000000000000000000000000000000000007bffffffffffffffffffffffffffffffffffffffffffffffffffffffff1916827bffffffffffffffffffffffffffffffffffffffffffffffffffffffff1916145b80610da15750610da0826114fc565b5b9050919050565b5f80610db383611565565b90505f73ffffffffffffffffffffffffffffffffffffffff168173ffffffffffffffffffffffffffffffffffffffff1603610e2557826040517f7e273289000000000000000000000000000000000000000000000000000000008152600401610e1c91906122b7565b60405180910390fd5b80915050919050565b5f60045f8381526020019081526020015f205f9054906101000a900473ffffffffffffffffffffffffffffffffffffffff169050919050565b5f33905090565b610e7b838383600161159e565b505050565b5f80610e8d85858561175d565b90505f73ffffffffffffffffffffffffffffffffffffffff168173ffffffffffffffffffffffffffffffffffffffff1603610ed057610ecb84611968565b610f0f565b8473ffffffffffffffffffffffffffffffffffffffff168173ffffffffffffffffffffffffffffffffffffffff1614610f0e57610f0d81856119ac565b5b5b5f73ffffffffffffffffffffffffffffffffffffffff168573ffffffffffffffffffffffffffffffffffffffff1603610f5057610f4b84611af6565b610f8f565b8473ffffffffffffffffffffffffffffffffffffffff168173ffffffffffffffffffffffffffffffffffffffff1614610f8e57610f8d8585611bb6565b5b5b809150509392505050565b610fb3828260405180602001604052805f815250611c3a565b5050565b610fbf610e67565b73ffffffffffffffffffffffffffffffffffffffff16610fdd610a58565b73ffffffffffffffffffffffffffffffffffffffff161461103c57611000610e67565b6040517f118cdaa70000000000000000000000000000000000000000000000000000000081526004016110339190612227565b60405180910390fd5b565b5f600a5f9054906101000a900473ffffffffffffffffffffffffffffffffffffffff16905081600a5f6101000a81548173ffffffffffffffffffffffffffffffffffffffff021916908373ffffffffffffffffffffffffffffffffffffffff1602179055508173ffffffffffffffffffffffffffffffffffffffff168173ffffffffffffffffffffffffffffffffffffffff167f8be0079c531659141344cd1fd0a4f28419497f9722a3daafe3b4186f6b6457e060405160405180910390a35050565b5f73ffffffffffffffffffffffffffffffffffffffff168273ffffffffffffffffffffffffffffffffffffffff160361117157816040517f5b08ba180000000000000000000000000000000000000000000000000000000081526004016111689190612227565b60405180910390fd5b8060055f8573ffffffffffffffffffffffffffffffffffffffff1673ffffffffffffffffffffffffffffffffffffffff1681526020019081526020015f205f8473ffffffffffffffffffffffffffffffffffffffff1673ffffffffffffffffffffffffffffffffffffffff1681526020019081526020015f205f6101000a81548160ff0219169083151502179055508173ffffffffffffffffffffffffffffffffffffffff168373ffffffffffffffffffffffffffffffffffffffff167f17307eab39ab6107e8899845ad3d59bd9653f200f220920489ca2b5937696c318360405161125d91906120c7565b60405180910390a3505050565b5f8373ffffffffffffffffffffffffffffffffffffffff163b1115611416578273ffffffffffffffffffffffffffffffffffffffff1663150b7a026112ad610e67565b8685856040518563ffffffff1660e01b81526004016112cf94939291906127d9565b6020604051808303815f875af192505050801561130a57506040513d601f19601f820116820180604052508101906113079190612837565b60015b61138b573d805f8114611338576040519150601f19603f3d011682016040523d82523d5f602084013e61133d565b606091505b505f81510361138357836040517f64a0ae9200000000000000000000000000000000000000000000000000000000815260040161137a9190612227565b60405180910390fd5b805181602001fd5b63150b7a0260e01b7bffffffffffffffffffffffffffffffffffffffffffffffffffffffff1916817bffffffffffffffffffffffffffffffffffffffffffffffffffffffff19161461141457836040517f64a0ae9200000000000000000000000000000000000000000000000000000000815260040161140b9190612227565b60405180910390fd5b505b50505050565b606060405180602001604052805f815250905090565b60605f600161144084611c55565b0190505f8167ffffffffffffffff81111561145e5761145d6123bb565b5b6040519080825280601f01601f1916602001820160405280156114905781602001600182028036833780820191505090505b5090505f82602001820190505b6001156114f1578080600190039150507f3031323334353637383961626364656600000000000000000000000000000000600a86061a8153600a85816114e6576114e5612862565b5b0494505f850361149d575b819350505050919050565b5f7f01ffc9a7000000000000000000000000000000000000000000000000000000007bffffffffffffffffffffffffffffffffffffffffffffffffffffffff1916827bffffffffffffffffffffffffffffffffffffffffffffffffffffffff1916149050919050565b5f60025f8381526020019081526020015f205f9054906101000a900473ffffffffffffffffffffffffffffffffffffffff169050919050565b80806115d657505f73ffffffffffffffffffffffffffffffffffffffff168273ffffffffffffffffffffffffffffffffffffffff1614155b15611708575f6115e584610da8565b90505f73ffffffffffffffffffffffffffffffffffffffff168373ffffffffffffffffffffffffffffffffffffffff161415801561164f57508273ffffffffffffffffffffffffffffffffffffffff168173ffffffffffffffffffffffffffffffffffffffff1614155b801561166257506116608184610bb5565b155b156116a457826040517fa9fbf51f00000000000000000000000000000000000000000000000000000000815260040161169b9190612227565b60405180910390fd5b811561170657838573ffffffffffffffffffffffffffffffffffffffff168273ffffffffffffffffffffffffffffffffffffffff167f8c5be1e5ebec7d5bd14f71427d1e84f3dd0314c0f7b2291e5b200ac8c7c3b92560405160405180910390a45b505b8360045f8581526020019081526020015f205f6101000a81548173ffffffffffffffffffffffffffffffffffffffff021916908373ffffffffffffffffffffffffffffffffffffffff16021790555050505050565b5f8061176884611565565b90505f73ffffffffffffffffffffffffffffffffffffffff168373ffffffffffffffffffffffffffffffffffffffff16146117a9576117a8818486611da6565b5b5f73ffffffffffffffffffffffffffffffffffffffff168173ffffffffffffffffffffffffffffffffffffffff1614611834576117e85f855f8061159e565b600160035f8373ffffffffffffffffffffffffffffffffffffffff1673ffffffffffffffffffffffffffffffffffffffff1681526020019081526020015f205f82825403925050819055505b5f73ffffffffffffffffffffffffffffffffffffffff168573ffffffffffffffffffffffffffffffffffffffff16146118b357600160035f8773ffffffffffffffffffffffffffffffffffffffff1673ffffffffffffffffffffffffffffffffffffffff1681526020019081526020015f205f82825401925050819055505b8460025f8681526020019081526020015f205f6101000a81548173ffffffffffffffffffffffffffffffffffffffff021916908373ffffffffffffffffffffffffffffffffffffffff160217905550838573ffffffffffffffffffffffffffffffffffffffff168273ffffffffffffffffffffffffffffffffffffffff167fddf252ad1be2c89b69c2b068fc378daa952ba7f163c4a11628f55a4df523b3ef60405160405180910390a4809150509392505050565b60088054905060095f8381526020019081526020015f2081905550600881908060018154018082558091505060019003905f5260205f20015f909190919091505550565b5f6119b68361098f565b90505f60075f8481526020019081526020015f20549050818114611a8d575f60065f8673ffffffffffffffffffffffffffffffffffffffff1673ffffffffffffffffffffffffffffffffffffffff1681526020019081526020015f205f8481526020019081526020015f205490508060065f8773ffffffffffffffffffffffffffffffffffffffff1673ffffffffffffffffffffffffffffffffffffffff1681526020019081526020015f205f8481526020019081526020015f20819055508160075f8381526020019081526020015f2081905550505b60075f8481526020019081526020015f205f905560065f8573ffffffffffffffffffffffffffffffffffffffff1673ffffffffffffffffffffffffffffffffffffffff1681526020019081526020015f205f8381526020019081526020015f205f905550505050565b5f6001600880549050611b09919061288f565b90505f60095f8481526020019081526020015f205490505f60088381548110611b3557611b346126fd565b5b905f5260205f20015490508060088381548110611b5557611b546126fd565b5b905f5260205f2001819055508160095f8381526020019081526020015f208190555060095f8581526020019081526020015f205f90556008805480611b9d57611b9c6128c2565b5b600190038181905f5260205f20015f9055905550505050565b5f6001611bc28461098f565b611bcc919061288f565b90508160065f8573ffffffffffffffffffffffffffffffffffffffff1673ffffffffffffffffffffffffffffffffffffffff1681526020019081526020015f205f8381526020019081526020015f20819055508060075f8481526020019081526020015f2081905550505050565b611c448383611e69565b611c505f84848461126a565b505050565b5f805f90507a184f03e93ff9f4daa797ed6e38ed64bf6a1f0100000000000000008310611cb1577a184f03e93ff9f4daa797ed6e38ed64bf6a1f0100000000000000008381611ca757611ca6612862565b5b0492506040810190505b6d04ee2d6d415b85acef81000000008310611cee576d04ee2d6d415b85acef81000000008381611ce457611ce3612862565b5b0492506020810190505b662386f26fc100008310611d1d57662386f26fc100008381611d1357611d12612862565b5b0492506010810190505b6305f5e1008310611d46576305f5e1008381611d3c57611d3b612862565b5b0492506008810190505b6127108310611d6b576127108381611d6157611d60612862565b5b0492506004810190505b60648310611d8e5760648381611d8457611d83612862565b5b0492506002810190505b600a8310611d9d576001810190505b80915050919050565b611db1838383611f5c565b611e64575f73ffffffffffffffffffffffffffffffffffffffff168373ffffffffffffffffffffffffffffffffffffffff1603611e2557806040517f7e273289000000000000000000000000000000000000000000000000000000008152600401611e1c91906122b7565b60405180910390fd5b81816040517f177e802f000000000000000000000000000000000000000000000000000000008152600401611e5b9291906126d6565b60405180910390fd5b505050565b5f73ffffffffffffffffffffffffffffffffffffffff168273ffffffffffffffffffffffffffffffffffffffff1603611ed9575f6040517f64a0ae92000000000000000000000000000000000000000000000000000000008152600401611ed09190612227565b60405180910390fd5b5f611ee583835f610e80565b90505f73ffffffffffffffffffffffffffffffffffffffff168173ffffffffffffffffffffffffffffffffffffffff1614611f57575f6040517f73c6ac6e000000000000000000000000000000000000000000000000000000008152600401611f4e9190612227565b60405180910390fd5b505050565b5f8073ffffffffffffffffffffffffffffffffffffffff168373ffffffffffffffffffffffffffffffffffffffff161415801561201357508273ffffffffffffffffffffffffffffffffffffffff168473ffffffffffffffffffffffffffffffffffffffff161480611fd45750611fd38484610bb5565b5b8061201257508273ffffffffffffffffffffffffffffffffffffffff16611ffa83610e2e565b73ffffffffffffffffffffffffffffffffffffffff16145b5b90509392505050565b5f604051905090565b5f80fd5b5f80fd5b5f7fffffffff0000000000000000000000000000000000000000000000000000000082169050919050565b6120618161202d565b811461206b575f80fd5b50565b5f8135905061207c81612058565b92915050565b5f6020828403121561209757612096612025565b5b5f6120a48482850161206e565b91505092915050565b5f8115159050919050565b6120c1816120ad565b82525050565b5f6020820190506120da5f8301846120b8565b92915050565b5f81519050919050565b5f82825260208201905092915050565b5f5b838110156121175780820151818401526020810190506120fc565b5f8484015250505050565b5f601f19601f8301169050919050565b5f61213c826120e0565b61214681856120ea565b93506121568185602086016120fa565b61215f81612122565b840191505092915050565b5f6020820190508181035f8301526121828184612132565b905092915050565b5f819050919050565b61219c8161218a565b81146121a6575f80fd5b50565b5f813590506121b781612193565b92915050565b5f602082840312156121d2576121d1612025565b5b5f6121df848285016121a9565b91505092915050565b5f73ffffffffffffffffffffffffffffffffffffffff82169050919050565b5f612211826121e8565b9050919050565b61222181612207565b82525050565b5f60208201905061223a5f830184612218565b92915050565b61224981612207565b8114612253575f80fd5b50565b5f8135905061226481612240565b92915050565b5f80604083850312156122805761227f612025565b5b5f61228d85828601612256565b925050602061229e858286016121a9565b9150509250929050565b6122b18161218a565b82525050565b5f6020820190506122ca5f8301846122a8565b92915050565b5f805f606084860312156122e7576122e6612025565b5b5f6122f486828701612256565b935050602061230586828701612256565b9250506040612316868287016121a9565b9150509250925092565b5f6020828403121561233557612334612025565b5b5f61234284828501612256565b91505092915050565b612354816120ad565b811461235e575f80fd5b50565b5f8135905061236f8161234b565b92915050565b5f806040838503121561238b5761238a612025565b5b5f61239885828601612256565b92505060206123a985828601612361565b9150509250929050565b5f80fd5b5f80fd5b7f4e487b71000000000000000000000000000000000000000000000000000000005f52604160045260245ffd5b6123f182612122565b810181811067ffffffffffffffff821117156124105761240f6123bb565b5b80604052505050565b5f61242261201c565b905061242e82826123e8565b919050565b5f67ffffffffffffffff82111561244d5761244c6123bb565b5b61245682612122565b9050602081019050919050565b828183375f83830152505050565b5f61248361247e84612433565b612419565b90508281526020810184848401111561249f5761249e6123b7565b5b6124aa848285612463565b509392505050565b5f82601f8301126124c6576124c56123b3565b5b81356124d6848260208601612471565b91505092915050565b5f805f80608085870312156124f7576124f6612025565b5b5f61250487828801612256565b945050602061251587828801612256565b9350506040612526878288016121a9565b925050606085013567ffffffffffffffff81111561254757612546612029565b5b612553878288016124b2565b91505092959194509250565b5f806040838503121561257557612574612025565b5b5f61258285828601612256565b925050602061259385828601612256565b9150509250929050565b7f4e487b71000000000000000000000000000000000000000000000000000000005f52602260045260245ffd5b5f60028204905060018216806125e157607f821691505b6020821081036125f4576125f361259d565b5b50919050565b5f60608201905061260d5f830186612218565b61261a60208301856122a8565b6126276040830184612218565b949350505050565b7f4e487b71000000000000000000000000000000000000000000000000000000005f52601160045260245ffd5b5f6126668261218a565b91506126718361218a565b92508282019050808211156126895761268861262f565b5b92915050565b5f6126998261218a565b91507fffffffffffffffffffffffffffffffffffffffffffffffffffffffffffffffff82036126cb576126ca61262f565b5b600182019050919050565b5f6040820190506126e95f830185612218565b6126f660208301846122a8565b9392505050565b7f4e487b71000000000000000000000000000000000000000000000000000000005f52603260045260245ffd5b5f81905092915050565b5f61273e826120e0565b612748818561272a565b93506127588185602086016120fa565b80840191505092915050565b5f61276f8285612734565b915061277b8284612734565b91508190509392505050565b5f81519050919050565b5f82825260208201905092915050565b5f6127ab82612787565b6127b58185612791565b93506127c58185602086016120fa565b6127ce81612122565b840191505092915050565b5f6080820190506127ec5f830187612218565b6127f96020830186612218565b61280660408301856122a8565b818103606083015261281881846127a1565b905095945050505050565b5f8151905061283181612058565b92915050565b5f6020828403121561284c5761284b612025565b5b5f61285984828501612823565b91505092915050565b7f4e487b71000000000000000000000000000000000000000000000000000000005f52601260045260245ffd5b5f6128998261218a565b91506128a48361218a565b92508282039050818111156128bc576128bb61262f565b5b92915050565b7f4e487b71000000000000000000000000000000000000000000000000000000005f52603160045260245ffdfea26469706673582212207cc5e903c11b6a52e72ae2662c4dfc8bd699290af1ea926a67de005f39df7df864736f6c63430008150033",
  "immutableReferences": {},
  "source": "// \r\n// SPDX-License-Identifier: MIT\r\n\r\npragma solidity ^0.8.21;\r\n\r\n// ERC721Enumerable : ERC721 , utility \r\nimport \"@openzeppelin/contracts/token/ERC721/extensions/ERC721Enumerable.sol\";\r\nimport \"@openzeppelin/contracts/utils/Strings.sol\";\r\nimport \"@openzeppelin/contracts/access/Ownable.sol\";\r\n\r\ncontract MintGemToken is ERC721Enumerable, Ownable{\r\n\r\n  string public metadataURI;\r\n\r\n  // 10^18 peb = 1 Klay\r\n  uint constant public GEM_TOKEN_PRICE = 1000000000000000000;\r\n\r\n  // string memory _metadataURI\r\n  constructor(string memory _name, string memory _symbol) ERC721(_name, _symbol) Ownable(msg.sender) {\r\n\r\n  }\r\n\r\n  function mintGemToken(uint amount) public payable{\r\n    for (uint i=0;i<amount;i++){\r\n      // require(GEM_TOKEN_PRICE <= msg.value, \"The fee amount is insufficient.\");\r\n\r\n      uint tokenId = totalSupply() + 1;\r\n\r\n      /* _mint  _safeMint  :    Mint  */\r\n      _safeMint(msg.sender, tokenId); // mint  \r\n    }\r\n  }\r\n}",
  "sourcePath": "C:\\Users\\Hyundo\\Desktop\\MyFile\\Programming\\CaptoneDesign\\web\\ownsaemiro-blockchain\\contracts\\MintGemToken.sol",
  "compiler": {
    "name": "solc",
    "version": "0.8.21+commit.d9974bed.Emscripten.clang"
  },
  "schemaVersion": "3.4.16",
  "updatedAt": "2024-06-04T15:29:20.196Z",
  "devdoc": {
    "errors": {
      "ERC721EnumerableForbiddenBatchMint()": [
        {
          "details": "Batch mint is not allowed."
        }
      ],
      "ERC721IncorrectOwner(address,uint256,address)": [
        {
          "details": "Indicates an error related to the ownership over a particular token. Used in transfers.",
          "params": {
            "owner": "Address of the current owner of a token.",
            "sender": "Address whose tokens are being transferred.",
            "tokenId": "Identifier number of a token."
          }
        }
      ],
      "ERC721InsufficientApproval(address,uint256)": [
        {
          "details": "Indicates a failure with the `operator`s approval. Used in transfers.",
          "params": {
            "operator": "Address that may be allowed to operate on tokens without being their owner.",
            "tokenId": "Identifier number of a token."
          }
        }
      ],
      "ERC721InvalidApprover(address)": [
        {
          "details": "Indicates a failure with the `approver` of a token to be approved. Used in approvals.",
          "params": {
            "approver": "Address initiating an approval operation."
          }
        }
      ],
      "ERC721InvalidOperator(address)": [
        {
          "details": "Indicates a failure with the `operator` to be approved. Used in approvals.",
          "params": {
            "operator": "Address that may be allowed to operate on tokens without being their owner."
          }
        }
      ],
      "ERC721InvalidOwner(address)": [
        {
          "details": "Indicates that an address can't be an owner. For example, `address(0)` is a forbidden owner in EIP-20. Used in balance queries.",
          "params": {
            "owner": "Address of the current owner of a token."
          }
        }
      ],
      "ERC721InvalidReceiver(address)": [
        {
          "details": "Indicates a failure with the token `receiver`. Used in transfers.",
          "params": {
            "receiver": "Address to which tokens are being transferred."
          }
        }
      ],
      "ERC721InvalidSender(address)": [
        {
          "details": "Indicates a failure with the token `sender`. Used in transfers.",
          "params": {
            "sender": "Address whose tokens are being transferred."
          }
        }
      ],
      "ERC721NonexistentToken(uint256)": [
        {
          "details": "Indicates a `tokenId` whose `owner` is the zero address.",
          "params": {
            "tokenId": "Identifier number of a token."
          }
        }
      ],
      "ERC721OutOfBoundsIndex(address,uint256)": [
        {
          "details": "An `owner`'s token query was out of bounds for `index`. NOTE: The owner being `address(0)` indicates a global out of bounds index."
        }
      ],
      "OwnableInvalidOwner(address)": [
        {
          "details": "The owner is not a valid owner account. (eg. `address(0)`)"
        }
      ],
      "OwnableUnauthorizedAccount(address)": [
        {
          "details": "The caller account is not authorized to perform an operation."
        }
      ]
    },
    "events": {
      "Approval(address,address,uint256)": {
        "details": "Emitted when `owner` enables `approved` to manage the `tokenId` token."
      },
      "ApprovalForAll(address,address,bool)": {
        "details": "Emitted when `owner` enables or disables (`approved`) `operator` to manage all of its assets."
      },
      "Transfer(address,address,uint256)": {
        "details": "Emitted when `tokenId` token is transferred from `from` to `to`."
      }
    },
    "kind": "dev",
    "methods": {
      "approve(address,uint256)": {
        "details": "See {IERC721-approve}."
      },
      "balanceOf(address)": {
        "details": "See {IERC721-balanceOf}."
      },
      "getApproved(uint256)": {
        "details": "See {IERC721-getApproved}."
      },
      "isApprovedForAll(address,address)": {
        "details": "See {IERC721-isApprovedForAll}."
      },
      "name()": {
        "details": "See {IERC721Metadata-name}."
      },
      "owner()": {
        "details": "Returns the address of the current owner."
      },
      "ownerOf(uint256)": {
        "details": "See {IERC721-ownerOf}."
      },
      "renounceOwnership()": {
        "details": "Leaves the contract without owner. It will not be possible to call `onlyOwner` functions. Can only be called by the current owner. NOTE: Renouncing ownership will leave the contract without an owner, thereby disabling any functionality that is only available to the owner."
      },
      "safeTransferFrom(address,address,uint256)": {
        "details": "See {IERC721-safeTransferFrom}."
      },
      "safeTransferFrom(address,address,uint256,bytes)": {
        "details": "See {IERC721-safeTransferFrom}."
      },
      "setApprovalForAll(address,bool)": {
        "details": "See {IERC721-setApprovalForAll}."
      },
      "supportsInterface(bytes4)": {
        "details": "See {IERC165-supportsInterface}."
      },
      "symbol()": {
        "details": "See {IERC721Metadata-symbol}."
      },
      "tokenByIndex(uint256)": {
        "details": "See {IERC721Enumerable-tokenByIndex}."
      },
      "tokenOfOwnerByIndex(address,uint256)": {
        "details": "See {IERC721Enumerable-tokenOfOwnerByIndex}."
      },
      "tokenURI(uint256)": {
        "details": "See {IERC721Metadata-tokenURI}."
      },
      "totalSupply()": {
        "details": "See {IERC721Enumerable-totalSupply}."
      },
      "transferFrom(address,address,uint256)": {
        "details": "See {IERC721-transferFrom}."
      },
      "transferOwnership(address)": {
        "details": "Transfers ownership of the contract to a new account (`newOwner`). Can only be called by the current owner."
      }
    },
    "version": 1
  },
  "userdoc": {
    "kind": "user",
    "methods": {},
    "version": 1
  }
}