{
  "contractName": "SaleGemToken",
  "abi": [
    {
      "inputs": [
        {
          "internalType": "address",
          "name": "_mintGemToken",
          "type": "address"
        }
      ],
      "stateMutability": "nonpayable",
      "type": "constructor"
    },
    {
      "inputs": [],
      "name": "mintGemToken",
      "outputs": [
        {
          "internalType": "contract MintGemToken",
          "name": "",
          "type": "address"
        }
      ],
      "stateMutability": "view",
      "type": "function"
    },
    {
      "inputs": [
        {
          "internalType": "uint256",
          "name": "",
          "type": "uint256"
        }
      ],
      "name": "onSaleTokens",
      "outputs": [
        {
          "internalType": "uint256",
          "name": "",
          "type": "uint256"
        }
      ],
      "stateMutability": "view",
      "type": "function"
    },
    {
      "inputs": [
        {
          "internalType": "uint256",
          "name": "",
          "type": "uint256"
        }
      ],
      "name": "tokenPrices",
      "outputs": [
        {
          "internalType": "uint256",
          "name": "",
          "type": "uint256"
        }
      ],
      "stateMutability": "view",
      "type": "function"
    },
    {
      "inputs": [
        {
          "internalType": "uint256",
          "name": "_tokenId",
          "type": "uint256"
        },
        {
          "internalType": "uint256",
          "name": "_price",
          "type": "uint256"
        }
      ],
      "name": "setForSaleGemToken",
      "outputs": [],
      "stateMutability": "nonpayable",
      "type": "function"
    },
    {
      "inputs": [
        {
          "internalType": "uint256",
          "name": "_tokenId",
          "type": "uint256"
        }
      ],
      "name": "purchaseGemToken",
      "outputs": [],
      "stateMutability": "payable",
      "type": "function"
    },
    {
      "inputs": [
        {
          "internalType": "address",
          "name": "_tokenOwner",
          "type": "address"
        }
      ],
      "name": "getGemTokens",
      "outputs": [
        {
          "components": [
            {
              "internalType": "uint256",
              "name": "tokenId",
              "type": "uint256"
            },
            {
              "internalType": "uint256",
              "name": "gemTokenRank",
              "type": "uint256"
            },
            {
              "internalType": "uint256",
              "name": "gemTokenType",
              "type": "uint256"
            },
            {
              "internalType": "uint256",
              "name": "tokenPrice",
              "type": "uint256"
            }
          ],
          "internalType": "struct SaleGemToken.GemTokenData[]",
          "name": "",
          "type": "tuple[]"
        }
      ],
      "stateMutability": "view",
      "type": "function"
    },
    {
      "inputs": [],
      "name": "getSaleGemTokens",
      "outputs": [
        {
          "components": [
            {
              "internalType": "uint256",
              "name": "tokenId",
              "type": "uint256"
            },
            {
              "internalType": "uint256",
              "name": "gemTokenRank",
              "type": "uint256"
            },
            {
              "internalType": "uint256",
              "name": "gemTokenType",
              "type": "uint256"
            },
            {
              "internalType": "uint256",
              "name": "tokenPrice",
              "type": "uint256"
            }
          ],
          "internalType": "struct SaleGemToken.GemTokenData[]",
          "name": "",
          "type": "tuple[]"
        }
      ],
      "stateMutability": "view",
      "type": "function"
    },
    {
      "inputs": [
        {
          "internalType": "address",
          "name": "_tokenOwner",
          "type": "address"
        }
      ],
      "name": "getLatestMintedGemToken",
      "outputs": [
        {
          "components": [
            {
              "internalType": "uint256",
              "name": "tokenId",
              "type": "uint256"
            },
            {
              "internalType": "uint256",
              "name": "gemTokenRank",
              "type": "uint256"
            },
            {
              "internalType": "uint256",
              "name": "gemTokenType",
              "type": "uint256"
            },
            {
              "internalType": "uint256",
              "name": "tokenPrice",
              "type": "uint256"
            }
          ],
          "internalType": "struct SaleGemToken.GemTokenData",
          "name": "",
          "type": "tuple"
        }
      ],
      "stateMutability": "view",
      "type": "function"
    },
    {
      "inputs": [
        {
          "internalType": "uint256",
          "name": "_tokenId",
          "type": "uint256"
        }
      ],
      "name": "getGemTokenInfo",
      "outputs": [
        {
          "internalType": "uint256",
          "name": "",
          "type": "uint256"
        },
        {
          "internalType": "uint256",
          "name": "",
          "type": "uint256"
        },
        {
          "internalType": "uint256",
          "name": "",
          "type": "uint256"
        }
      ],
      "stateMutability": "view",
      "type": "function"
    }
  ],
  "bytecode": "0x608060405234801562000010575f80fd5b5060405162001afa38038062001afa8339818101604052810190620000369190620000e1565b805f806101000a81548173ffffffffffffffffffffffffffffffffffffffff021916908373ffffffffffffffffffffffffffffffffffffffff1602179055505062000111565b5f80fd5b5f73ffffffffffffffffffffffffffffffffffffffff82169050919050565b5f620000ab8262000080565b9050919050565b620000bd816200009f565b8114620000c8575f80fd5b50565b5f81519050620000db81620000b2565b92915050565b5f60208284031215620000f957620000f86200007c565b5b5f6200010884828501620000cb565b91505092915050565b6119db806200011f5f395ff3fe608060405260043610610085575f3560e01c8063d1fb155e11610058578063d1fb155e14610147578063d31cc78814610183578063e5afe3e6146101ad578063ea768dcd146101e9578063ef9ed3571461021357610085565b8063306afb421461008957806349f0f84a146100a5578063847fd448146100e1578063b6c0a97f1461011f575b5f80fd5b6100a3600480360381019061009e9190610f95565b61024f565b005b3480156100b0575f80fd5b506100cb60048036038101906100c69190610f95565b6104ef565b6040516100d89190610fcf565b60405180910390f35b3480156100ec575f80fd5b5061010760048036038101906101029190610f95565b61050f565b60405161011693929190610fe8565b60405180910390f35b34801561012a575f80fd5b506101456004803603810190610140919061101d565b61066f565b005b348015610152575f80fd5b5061016d600480360381019061016891906110b5565b610926565b60405161017a9190611142565b60405180910390f35b34801561018e575f80fd5b50610197610ab1565b6040516101a491906111b6565b60405180910390f35b3480156101b8575f80fd5b506101d360048036038101906101ce9190610f95565b610ad4565b6040516101e09190610fcf565b60405180910390f35b3480156101f4575f80fd5b506101fd610ae9565b60405161020a91906112ca565b60405180910390f35b34801561021e575f80fd5b50610239600480360381019061023491906110b5565b610c2d565b60405161024691906112ca565b60405180910390f35b5f805f9054906101000a900473ffffffffffffffffffffffffffffffffffffffff1673ffffffffffffffffffffffffffffffffffffffff16636352211e836040518263ffffffff1660e01b81526004016102a99190610fcf565b602060405180830381865afa1580156102c4573d5f803e3d5ffd5b505050506040513d601f19601f820116820180604052508101906102e891906112fe565b90503373ffffffffffffffffffffffffffffffffffffffff168173ffffffffffffffffffffffffffffffffffffffff1603610358576040517f08c379a000000000000000000000000000000000000000000000000000000000815260040161034f90611383565b60405180910390fd5b5f60015f8481526020019081526020015f2054116103ab576040517f08c379a00000000000000000000000000000000000000000000000000000000081526004016103a2906113eb565b60405180910390fd5b3460015f8481526020019081526020015f205411156103ff576040517f08c379a00000000000000000000000000000000000000000000000000000000081526004016103f690611453565b60405180910390fd5b8073ffffffffffffffffffffffffffffffffffffffff166108fc3490811502906040515f60405180830381858888f19350505050158015610442573d5f803e3d5ffd5b505f8054906101000a900473ffffffffffffffffffffffffffffffffffffffff1673ffffffffffffffffffffffffffffffffffffffff166342842e0e8233856040518463ffffffff1660e01b815260040161049f93929190611480565b5f604051808303815f87803b1580156104b6575f80fd5b505af11580156104c8573d5f803e3d5ffd5b505050505f60015f8481526020019081526020015f20819055506104eb82610e7d565b5050565b600281815481106104fe575f80fd5b905f5260205f20015f915090505481565b5f805f805f8054906101000a900473ffffffffffffffffffffffffffffffffffffffff1673ffffffffffffffffffffffffffffffffffffffff16633c38ba44866040518263ffffffff1660e01b815260040161056b9190610fcf565b602060405180830381865afa158015610586573d5f803e3d5ffd5b505050506040513d601f19601f820116820180604052508101906105aa91906114c9565b90505f805f9054906101000a900473ffffffffffffffffffffffffffffffffffffffff1673ffffffffffffffffffffffffffffffffffffffff1663a3805054876040518263ffffffff1660e01b81526004016106069190610fcf565b602060405180830381865afa158015610621573d5f803e3d5ffd5b505050506040513d601f19601f8201168201806040525081019061064591906114c9565b90505f60015f8881526020019081526020015f205490508282829550955095505050509193909250565b5f805f9054906101000a900473ffffffffffffffffffffffffffffffffffffffff1673ffffffffffffffffffffffffffffffffffffffff16636352211e846040518263ffffffff1660e01b81526004016106c99190610fcf565b602060405180830381865afa1580156106e4573d5f803e3d5ffd5b505050506040513d601f19601f8201168201806040525081019061070891906112fe565b90503373ffffffffffffffffffffffffffffffffffffffff168173ffffffffffffffffffffffffffffffffffffffff1614610778576040517f08c379a000000000000000000000000000000000000000000000000000000000815260040161076f9061153e565b60405180910390fd5b5f82116107ba576040517f08c379a00000000000000000000000000000000000000000000000000000000081526004016107b1906115a6565b60405180910390fd5b5f60015f8581526020019081526020015f20541461080d576040517f08c379a000000000000000000000000000000000000000000000000000000000815260040161080490611634565b60405180910390fd5b5f8054906101000a900473ffffffffffffffffffffffffffffffffffffffff1673ffffffffffffffffffffffffffffffffffffffff1663e985e9c533306040518363ffffffff1660e01b8152600401610867929190611652565b602060405180830381865afa158015610882573d5f803e3d5ffd5b505050506040513d601f19601f820116820180604052508101906108a691906116ae565b6108e5576040517f08c379a00000000000000000000000000000000000000000000000000000000081526004016108dc90611749565b60405180910390fd5b8160015f8581526020019081526020015f2081905550600283908060018154018082558091505060019003905f5260205f20015f9091909190915055505050565b61092e610f3a565b5f805f9054906101000a900473ffffffffffffffffffffffffffffffffffffffff1673ffffffffffffffffffffffffffffffffffffffff166370a08231846040518263ffffffff1660e01b81526004016109889190611767565b602060405180830381865afa1580156109a3573d5f803e3d5ffd5b505050506040513d601f19601f820116820180604052508101906109c791906114c9565b90505f805f9054906101000a900473ffffffffffffffffffffffffffffffffffffffff1673ffffffffffffffffffffffffffffffffffffffff16632f745c5985600185610a1491906117ad565b6040518363ffffffff1660e01b8152600401610a319291906117e0565b602060405180830381865afa158015610a4c573d5f803e3d5ffd5b505050506040513d601f19601f82011682018060405250810190610a7091906114c9565b90505f805f610a7e8461050f565b92509250925060405180608001604052808581526020018481526020018381526020018281525095505050505050919050565b5f8054906101000a900473ffffffffffffffffffffffffffffffffffffffff1681565b6001602052805f5260405f205f915090505481565b60605f60028054905011610b32576040517f08c379a0000000000000000000000000000000000000000000000000000000008152600401610b2990611851565b60405180910390fd5b5f60028054905067ffffffffffffffff811115610b5257610b5161186f565b5b604051908082528060200260200182016040528015610b8b57816020015b610b78610f3a565b815260200190600190039081610b705790505b5090505f5b600280549050811015610c25575f60028281548110610bb257610bb161189c565b5b905f5260205f20015490505f805f610bc98461050f565b925092509250604051806080016040528085815260200184815260200183815260200182815250868681518110610c0357610c0261189c565b5b6020026020010181905250505050508080610c1d906118c9565b915050610b90565b508091505090565b60605f805f9054906101000a900473ffffffffffffffffffffffffffffffffffffffff1673ffffffffffffffffffffffffffffffffffffffff166370a08231846040518263ffffffff1660e01b8152600401610c899190611767565b602060405180830381865afa158015610ca4573d5f803e3d5ffd5b505050506040513d601f19601f82011682018060405250810190610cc891906114c9565b90505f8111610d0c576040517f08c379a0000000000000000000000000000000000000000000000000000000008152600401610d039061195a565b60405180910390fd5b5f8167ffffffffffffffff811115610d2757610d2661186f565b5b604051908082528060200260200182016040528015610d6057816020015b610d4d610f3a565b815260200190600190039081610d455790505b5090505f5b82811015610e72575f805f9054906101000a900473ffffffffffffffffffffffffffffffffffffffff1673ffffffffffffffffffffffffffffffffffffffff16632f745c5987846040518363ffffffff1660e01b8152600401610dc99291906117e0565b602060405180830381865afa158015610de4573d5f803e3d5ffd5b505050506040513d601f19601f82011682018060405250810190610e0891906114c9565b90505f805f610e168461050f565b925092509250604051806080016040528085815260200184815260200183815260200182815250868681518110610e5057610e4f61189c565b5b6020026020010181905250505050508080610e6a906118c9565b915050610d65565b508092505050919050565b5f5b600280549050811015610f36578160028281548110610ea157610ea061189c565b5b905f5260205f20015403610f235760026001600280549050610ec391906117ad565b81548110610ed457610ed361189c565b5b905f5260205f20015460028281548110610ef157610ef061189c565b5b905f5260205f2001819055506002805480610f0f57610f0e611978565b5b600190038181905f5260205f20015f905590555b8080610f2e906118c9565b915050610e7f565b5050565b60405180608001604052805f81526020015f81526020015f81526020015f81525090565b5f80fd5b5f819050919050565b610f7481610f62565b8114610f7e575f80fd5b50565b5f81359050610f8f81610f6b565b92915050565b5f60208284031215610faa57610fa9610f5e565b5b5f610fb784828501610f81565b91505092915050565b610fc981610f62565b82525050565b5f602082019050610fe25f830184610fc0565b92915050565b5f606082019050610ffb5f830186610fc0565b6110086020830185610fc0565b6110156040830184610fc0565b949350505050565b5f806040838503121561103357611032610f5e565b5b5f61104085828601610f81565b925050602061105185828601610f81565b9150509250929050565b5f73ffffffffffffffffffffffffffffffffffffffff82169050919050565b5f6110848261105b565b9050919050565b6110948161107a565b811461109e575f80fd5b50565b5f813590506110af8161108b565b92915050565b5f602082840312156110ca576110c9610f5e565b5b5f6110d7848285016110a1565b91505092915050565b6110e981610f62565b82525050565b608082015f8201516111035f8501826110e0565b50602082015161111660208501826110e0565b50604082015161112960408501826110e0565b50606082015161113c60608501826110e0565b50505050565b5f6080820190506111555f8301846110ef565b92915050565b5f819050919050565b5f61117e6111796111748461105b565b61115b565b61105b565b9050919050565b5f61118f82611164565b9050919050565b5f6111a082611185565b9050919050565b6111b081611196565b82525050565b5f6020820190506111c95f8301846111a7565b92915050565b5f81519050919050565b5f82825260208201905092915050565b5f819050602082019050919050565b608082015f82015161120c5f8501826110e0565b50602082015161121f60208501826110e0565b50604082015161123260408501826110e0565b50606082015161124560608501826110e0565b50505050565b5f61125683836111f8565b60808301905092915050565b5f602082019050919050565b5f611278826111cf565b61128281856111d9565b935061128d836111e9565b805f5b838110156112bd5781516112a4888261124b565b97506112af83611262565b925050600181019050611290565b5085935050505092915050565b5f6020820190508181035f8301526112e2818461126e565b905092915050565b5f815190506112f88161108b565b92915050565b5f6020828403121561131357611312610f5e565b5b5f611320848285016112ea565b91505092915050565b5f82825260208201905092915050565b7f43616c6c65722069732047656d20746f6b656e206f776e65722e0000000000005f82015250565b5f61136d601a83611329565b915061137882611339565b602082019050919050565b5f6020820190508181035f83015261139a81611361565b9050919050565b7f546869732047656d20746f6b656e206e6f742073616c652e00000000000000005f82015250565b5f6113d5601883611329565b91506113e0826113a1565b602082019050919050565b5f6020820190508181035f830152611402816113c9565b9050919050565b7f43616c6c65722073656e74206c6f776572207468616e2070726963652e0000005f82015250565b5f61143d601d83611329565b915061144882611409565b602082019050919050565b5f6020820190508181035f83015261146a81611431565b9050919050565b61147a8161107a565b82525050565b5f6060820190506114935f830186611471565b6114a06020830185611471565b6114ad6040830184610fc0565b949350505050565b5f815190506114c381610f6b565b92915050565b5f602082840312156114de576114dd610f5e565b5b5f6114eb848285016114b5565b91505092915050565b7f43616c6c6572206973206e6f742047656d20746f6b656e206f776e65722e00005f82015250565b5f611528601e83611329565b9150611533826114f4565b602082019050919050565b5f6020820190508181035f8301526115558161151c565b9050919050565b7f5072696365206973207a65726f206f72206c6f776572000000000000000000005f82015250565b5f611590601683611329565b915061159b8261155c565b602082019050919050565b5f6020820190508181035f8301526115bd81611584565b9050919050565b7f546869732047656d20746f6b656e20697320616c7265616479206f6e2073616c5f8201527f652e000000000000000000000000000000000000000000000000000000000000602082015250565b5f61161e602283611329565b9150611629826115c4565b604082019050919050565b5f6020820190508181035f83015261164b81611612565b9050919050565b5f6040820190506116655f830185611471565b6116726020830184611471565b9392505050565b5f8115159050919050565b61168d81611679565b8114611697575f80fd5b50565b5f815190506116a881611684565b92915050565b5f602082840312156116c3576116c2610f5e565b5b5f6116d08482850161169a565b91505092915050565b7f47656d20746f6b656e206f776e657220646964206e6f7420617070726f7665205f8201527f746f6b656e000000000000000000000000000000000000000000000000000000602082015250565b5f611733602583611329565b915061173e826116d9565b604082019050919050565b5f6020820190508181035f83015261176081611727565b9050919050565b5f60208201905061177a5f830184611471565b92915050565b7f4e487b71000000000000000000000000000000000000000000000000000000005f52601160045260245ffd5b5f6117b782610f62565b91506117c283610f62565b92508282039050818111156117da576117d9611780565b5b92915050565b5f6040820190506117f35f830185611471565b6118006020830184610fc0565b9392505050565b7f4e6f74206578697374206f6e2073616c6520746f6b656e2e00000000000000005f82015250565b5f61183b601883611329565b915061184682611807565b602082019050919050565b5f6020820190508181035f8301526118688161182f565b9050919050565b7f4e487b71000000000000000000000000000000000000000000000000000000005f52604160045260245ffd5b7f4e487b71000000000000000000000000000000000000000000000000000000005f52603260045260245ffd5b5f6118d382610f62565b91507fffffffffffffffffffffffffffffffffffffffffffffffffffffffffffffffff820361190557611904611780565b5b600182019050919050565b7f546f6b656e206f776e657220646964206e6f74206861766520746f6b656e2e005f82015250565b5f611944601f83611329565b915061194f82611910565b602082019050919050565b5f6020820190508181035f83015261197181611938565b9050919050565b7f4e487b71000000000000000000000000000000000000000000000000000000005f52603160045260245ffdfea2646970667358221220ba02ddcc4b3bf17611b2b91ee0e24edc70211a90bbd1913e5baabfcca2681b2164736f6c63430008150033",
  "immutableReferences": {},
  "source": "// SPDX-License-Identifier: MIT\r\n\r\npragma solidity ^0.8.21;\r\n\r\nimport \"./MintGemToken.sol\";\r\n\r\n// remixd -s . --remix-ide https://remix.ethereum.org\r\n// https://remix.ethereum.org/?#activate=klaytn-remix-plugin,fileManager\r\ncontract SaleGemToken{\r\n  MintGemToken public mintGemToken;\r\n\r\n  constructor(address _mintGemToken){\r\n    mintGemToken = MintGemToken(_mintGemToken);\r\n  }\r\n\r\n  struct GemTokenData {\r\n    uint tokenId;\r\n    uint gemTokenRank;\r\n    uint gemTokenType;\r\n    uint tokenPrice;\r\n  }\r\n\r\n  mapping(uint => uint) public tokenPrices;\r\n\r\n  uint[] public onSaleTokens; //  Token\r\n\r\n  function setForSaleGemToken(uint _tokenId, uint _price) public {\r\n    address tokenOwner = mintGemToken.ownerOf(_tokenId);\r\n\r\n    require(tokenOwner == msg.sender, \"Caller is not Gem token owner.\");\r\n    require(_price > 0, \"Price is zero or lower\");\r\n    require(tokenPrices[_tokenId] == 0, \"This Gem token is already on sale.\");\r\n    require(mintGemToken.isApprovedForAll(msg.sender, address(this)), \"Gem token owner did not approve token\"); \r\n    // address(this) :   (msg.sender address(this)   )\r\n  \r\n    tokenPrices[_tokenId] = _price;\r\n\r\n    onSaleTokens.push(_tokenId);\r\n  }\r\n\r\n  function purchaseGemToken(uint _tokenId) public payable {\r\n    address tokenOwner = mintGemToken.ownerOf(_tokenId);\r\n\r\n    require(tokenOwner != msg.sender, \"Caller is Gem token owner.\");\r\n    require(tokenPrices[_tokenId] > 0, \"This Gem token not sale.\");\r\n    require(tokenPrices[_tokenId] <= msg.value, \"Caller sent lower than price.\");\r\n\r\n    payable(tokenOwner).transfer(msg.value); // Owner  \r\n\r\n    mintGemToken.safeTransferFrom(tokenOwner, msg.sender, _tokenId); // Owner   Token \r\n\r\n    tokenPrices[_tokenId] = 0;\r\n\r\n    popOnSaleToken(_tokenId);\r\n  }\r\n\r\n  function popOnSaleToken(uint _tokenId) private {\r\n    for(uint i = 0; i < onSaleTokens.length; i++) {\r\n      if(onSaleTokens[i] == _tokenId) {\r\n        onSaleTokens[i] = onSaleTokens[onSaleTokens.length - 1];\r\n        onSaleTokens.pop();\r\n      }\r\n    }\r\n  }\r\n\r\n  function getGemTokens(address _tokenOwner) public view returns(GemTokenData[] memory) {\r\n    uint balanceLength = mintGemToken.balanceOf(_tokenOwner);\r\n\r\n    require(balanceLength > 0, \"Token owner did not have token.\");\r\n\r\n    GemTokenData[] memory gemTokens = new GemTokenData[](balanceLength);\r\n\r\n    for(uint i = 0; i < balanceLength; i++) {\r\n      uint tokenId = mintGemToken.tokenOfOwnerByIndex(_tokenOwner, i);\r\n            \r\n      (uint gemTokenRank, uint gemTokenType, uint tokenPrice) = getGemTokenInfo(tokenId);\r\n\r\n      gemTokens[i] = GemTokenData(tokenId, gemTokenRank, gemTokenType, tokenPrice);\r\n    }\r\n\r\n    return gemTokens;\r\n  }\r\n\r\n  function getSaleGemTokens() public view returns(GemTokenData[] memory) {\r\n    require(onSaleTokens.length > 0, \"Not exist on sale token.\");\r\n\r\n    GemTokenData[] memory gemTokens = new GemTokenData[](onSaleTokens.length);\r\n\r\n    for(uint i = 0; i < onSaleTokens.length; i++) {\r\n      uint tokenId = onSaleTokens[i];\r\n\r\n      (uint gemTokenRank, uint gemTokenType, uint tokenPrice) = getGemTokenInfo(tokenId);\r\n\r\n      gemTokens[i] = GemTokenData(tokenId, gemTokenRank, gemTokenType, tokenPrice);\r\n    }\r\n\r\n    return gemTokens;\r\n  }\r\n\r\n  function getLatestMintedGemToken(address _tokenOwner) public view returns(GemTokenData memory) {\r\n    uint balanceLength = mintGemToken.balanceOf(_tokenOwner);\r\n\r\n    uint tokenId = mintGemToken.tokenOfOwnerByIndex(_tokenOwner, balanceLength - 1); //   \r\n\r\n    (uint gemTokenRank, uint gemTokenType, uint tokenPrice) = getGemTokenInfo(tokenId);\r\n\r\n    return GemTokenData(tokenId, gemTokenRank, gemTokenType, tokenPrice);\r\n  }\r\n\r\n  function getGemTokenInfo(uint _tokenId) public view returns(uint, uint, uint) {\r\n    uint gemTokenRank = mintGemToken.getGemTokenRank(_tokenId);\r\n    uint gemTokenType = mintGemToken.getGemTokenType(_tokenId);\r\n    uint tokenPrice = tokenPrices[_tokenId];\r\n\r\n    return (gemTokenRank, gemTokenType, tokenPrice);\r\n  } \r\n}",
  "sourcePath": "C:\\Users\\Hyundo\\Desktop\\MyFile\\Programming\\CaptoneDesign\\ownsaemiro-blockchain\\contracts\\SaleGemToken.sol",
  "compiler": {
    "name": "solc",
    "version": "0.8.21+commit.d9974bed.Emscripten.clang"
  },
  "schemaVersion": "3.4.16",
  "updatedAt": "2024-06-01T06:54:56.723Z",
  "devdoc": {
    "kind": "dev",
    "methods": {},
    "version": 1
  },
  "userdoc": {
    "kind": "user",
    "methods": {},
    "version": 1
  }
}